:020000040000fa
:080000000013040000000000e1
:020000040000fa
:1000080002100000061000000a1000000e10000088
:1000180012100000161000001a1000001e10000038
:1000280022100000261000002a1000002e100000e8
:1000380032100000361000003a1000003e10000098
:1000480042100000461000004a1000004e10000048
:1000580052100000561000005a1000005e100000f8
:1000680062100000661000006a1000006e100000a8
:1000780072100000761000007a1000007e10000058
:1000880082100000861000008a1000008e10000008
:1000980092100000961000009a1000009e100000b8
:1000a800a2100000a6100000aa100000ae10000068
:1000b800b2100000b6100000ba100000be10000018
:1000c800c2100000c6100000ca100000ce100000c8
:1000d800d2100000d6100000da100000de10000078
:1000e800e2100000e6100000ea100000ee10000028
:1000f800f2100000f6100000fa100000fe100000d8
:1001080002110000061100000a1100000e11000083
:1001180012110000161100001a1100001e11000033
:1001280022110000261100002a1100002e110000e3
:1001380032110000361100003a1100003e11000093
:1001480042110000461100004a1100004e11000043
:1001580052110000561100005a1100005e110000f3
:1001680062110000661100006a1100006e110000a3
:1001780072110000761100007a1100007e11000053
:1001880082110000861100008a1100008e11000003
:1001980092110000961100009a1100009e110000b3
:1001a800a2110000a6110000aa110000ae11000063
:1001b800b2110000b6110000ba110000be11000013
:1001c800c2110000c6110000ca110000ce110000c3
:1001d800d2110000d6110000da110000de11000073
:1001e800e2110000e6110000ea110000ee11000023
:1001f800f2110000f6110000fa110000fe110000d3
:1002080002120000061200000a1200000e1200007e
:1002180012120000161200001a1200001e1200002e
:1002280022120000261200002a1200002e120000de
:1002380032120000361200003a1200003e1200008e
:1002480042120000461200004a1200004e1200003e
:1002580052120000561200005a1200005e120000ee
:1002680062120000661200006a1200006e1200009e
:0c02780072120000761200007a120000e2
:020000040000fa
:1020000002000000022e040000000000022e040066
:1020100000000000022e040000000000022e040058
:1020200000000000022e040000000000022e040048
:1020300000000000022e040000000000022e040038
:1020400000000000022e040000000000022e040028
:1020500000000000022e040000000000022e040018
:1020600000000000022e040000000000022e040008
:1020700000000000022e040000000000d213040043
:1020800000000000022e040000000000022e0400e8
:1020900000000000022e040000000000022e0400d8
:1020a00000000000022e040000000000022e0400c8
:1020b00000000000022e040000000000022e0400b8
:1020c00000000000022e040000000000022e0400a8
:1020d00000000000022e040000000000022e040098
:1020e00000000000022e040000000000022e040088
:1020f00000000000022e040000000000022e040078
:1021000000000000022e040000000000022e040067
:1021100000000000022e040000000000022e040057
:1021200000000000022e040000000000022e040047
:1021300000000000022e040000000000022e040037
:1021400000000000022e040000000000022e040027
:1021500000000000022e040000000000022e040017
:1021600000000000022e040000000000022e040007
:1021700000000000022e040000000000022e0400f7
:1021800000000000022e040000000000022e0400e7
:1021900000000000022e040000000000022e0400d7
:1021a00000000000022e040000000000022e0400c7
:1021b00000000000022e040000000000022e0400b7
:1021c00000000000022e040000000000022e0400a7
:1021d00000000000022e040000000000022e040097
:1021e00000000000022e040000000000022e040087
:1021f00000000000022e040000000000022e040077
:1022000000000000022e040000000000022e040066
:1022100000000000022e040000000000022e040056
:1022200000000000022e040000000000022e040046
:1022300000000000022e040000000000022e040036
:1022400000000000022e040000000000022e040026
:1022500000000000022e040000000000022e040016
:1022600000000000022e040000000000022e040006
:1022700000000000022e040000000000022e0400f6
:1022800000000000022e040000000000022e0400e6
:1022900000000000022e040000000000022e0400d6
:1022a00000000000022e040000000000022e0400c6
:1022b00000000000022e040000000000022e0400b6
:1022c00000000000022e040000000000022e0400a6
:1022d00000000000022e040000000000022e040096
:1022e00000000000022e040000000000022e040086
:1022f00000000000022e040000000000022e040076
:1023000000000000022e040000000000022e040065
:1023100000000000022e040000000000022e040055
:1023200000000000022e040000000000022e040045
:1023300000000000022e040000000000022e040035
:1023400000000000022e040000000000022e040025
:1023500000000000022e040000000000022e040015
:1023600000000000022e040000000000022e040005
:1023700000000000022e040000000000022e0400f5
:1023800000000000022e040000000000022e0400e5
:1023900000000000022e040000000000022e0400d5
:1023a00000000000022e040000000000022e0400c5
:1023b00000000000022e040000000000022e0400b5
:1023c00000000000022e040000000000022e0400a5
:1023d00000000000022e040000000000022e040095
:1023e00000000000022e040000000000022e040085
:1023f00000000000022e040000000000022e040075
:1024000000000000022e040000000000022e040064
:1024100000000000022e040000000000022e040054
:1024200000000000022e040000000000022e040044
:1024300000000000022e040000000000022e040034
:1024400000000000022e040000000000022e040024
:1024500000000000022e040000000000022e040014
:1024600000000000022e040000000000022e040004
:1024700000000000022e040000000000022e0400f4
:1024800000000000022e040000000000022e0400e4
:1024900000000000022e040000000000022e0400d4
:1024a00000000000022e040000000000022e0400c4
:1024b00000000000022e040000000000022e0400b4
:1024c00000000000022e040000000000022e0400a4
:1024d00000000000022e040000000000022e040094
:1024e00000000000022e040000000000022e040084
:0c24f00000000000022e040000000000ac
:020000040000fa
:10260000efa121000eff24000e0188000000000051
:10261000000020000000e000020032000001200065
:10262000200288000c00070080e423000100200045
:102630000f000700000020000000e0000200320050
:102640000000020000000000ec3d0200000000005d
:102650000040da000000fe00a09e20000000e00024
:1026600002003200002020009001880000000600d7
:10267000a1028800800078000000eb001a003700fb
:10268000e280400054a0b4009101ba00e280400012
:1026900054a0b4009102ba00e280400054a0b400fb
:1026a0000002eb00472bde00f507b200a601880010
:1026b000602ce10008003a000049eb000201e8004c
:1026c000020039003420ec0002f0a0008301e90090
:1026d000f9ff3e00040037006128e10001003200ec
:1026e0000082eb00040007001101ba000200e000c4
:1026f000e3ff3a000000060004d0a300e20f490007
:102700001c003900810278003549ba000201e80056
:10271000020039003420ec0002f0a0008301e9003f
:102720000f0032002549ba000201e800020039001a
:102730003420ec0002f0a0008301e9000800320020
:102740000400e0000600320015c9ba000201e800ea
:10275000020039003420ec0002f0a0008301e900ff
:102760008180e80054a0b4000300e000e2ff3a00da
:10277000000006009102ba00055978008301e900c3
:10278000f7ff3200c82ade00055978008301e9000e
:10279000f3ff32000400e000f1ff320011d9ba006b
:1027a000eeff37003600f800809fbe00829fbe001b
:1027b000849fbe00869fbe00881f78003200f8000c
:1027c0000020200090018800000000000000fa00b6
:1027d00075d08000c4d08000040242000482420010
:1027e000140478005215070000027800cfa2de0022
:1027f0000400be00a20107000002be00048cbe005f
:10280000c4d080000402e800c4d0880000e8a90019
:102810000080fa003200f9004f0478004f03be0038
:102820004f02be004f01be004f00be003600f9004f
:10283000004006000000fa000002eb00c4d088004f
:1028400004022000840888000002eb00340888009d
:1028500000e8a9001442800004c0a00004d0a10038
:1028600004e0a1001442880020e8a80011e1a800bb
:102870000080fa000000060003f0a200889fbe005e
:102880008a9fbe008c1f7800bd010700c401330081
:102890006450e1004f0032006420e1005200320039
:1028a00003826c0007003b000905d0000306d0003e
:1028b000820f54000c065d00020039000200320055
:1028c00089017800030678008582550004003d00e8
:1028d0000003fd008103fd008502ea008b854200b4
:1028e000840f720002003b0060001000e0801800be
:1028f0006011b8000005eb007a28e1000a003900f9
:1029000006007800c75ddd00f707b200878075001c
:102910002d003700828171000a0178006105600096
:102920008180d1000080d3008502e900f9ff3b00df
:10293000060440008784480002003b006004140045
:10294000e0841c000988a300070032008a8171001e
:1029500082817100610164008904d1000884d30080
:102960008b05e800170037000978a30013003a0030
:102970000b00e000130034008b05e900080444005c
:1029800089844c000a4474000978a3000d003a00c1
:102990000b00e000070034008b05e9000804440048
:1029a00089844c0001003a000b0020000978a30044
:1029b000f7ff32000001eb00020037008281710056
:1029c0000a017800330107000cf0a70001f0a00015
:1029d0007c0137006420e10002003a00838f6c0024
:1029e0007c0133000801be000200be007501370003
:1029f0000081eb00230237002800fa00889fbe0008
:102a00008a9fbe008c9fbe0003866b00c200070039
:102a10006400e100440032006408e1004a00320032
:102a20006100e100460032006108e1004900320027
:102a3000ec0647006000b8003d02be003d03be004a
:102a4000f48657006011b8003d04be003d05be008d
:102a50007d0320000b0037000000a0008d06e90078
:102a6000130032000402420085824a0006034b0034
:102a700087834b000000400081804800020149002c
:102a8000838149000802520089825a000a035b00d0
:102a90008b835b00f0ff3b000802420089824a0002
:102aa0000a034b008b834b008d06e900edff3a00d3
:102ab0008482720086827200f707b20087827200f9
:102ac00001003200150020001e0490003e0b900013
:102ad00006035400e63fb0000368a300070032007d
:102ae0000000a7000500a0008301d1000281d300ef
:102af0008180d3000080d3000603e8008301d10069
:102b00000281d3008180d3000080d3000002eb005b
:102b10000482d2005400070003f0a1000cf0a700cb
:102b200003f0a00090003700640247006408e10051
:102b30008a0032003400be003401be00f6ff3700c8
:102b40006108e100850032006011b8006000b80043
:102b5000f1ff370003ff270002002000fbff3700d2
:102b6000889fbe008a9fbe008c1f7800040107006a
:102b70000b01330003866c006450e1002e0032002c
:102b80006420e100330032006150e1002f00320088
:102b90006120e1003100320085855500eb07b0006f
:102ba0000900200008042000050037000804440044
:102bb00089844c000a0031000603430087834b00e0
:102bc0000001530081815b00f8ff33000203be0067
:102bd0000800a0000804440089844c00f6ff390076
:102be000c639dd00830173000100320013002000ac
:102bf0008904d1000884d3000998a300050032009d
:102c00000800a7000300a0008904d1000884d300b5
:102c10008b05e8008904d1000884d3000001eb0093
:102c20000281d2009b00070001f0a1000cf0a70078
:102c300001f0a000e30037006420e100e50032006d
:102c40000801be000200be00f7ff37006120e1006e
:102c5000e00032006000b800f3ff37000000200001
:102c600001f82700f0ff370018002000570020006f
:102c7000080453000d003d000600200097fc2f00c3
:102c80000740e1001e00340084827200610260008f
:102c90008301d1000281d3008180d3000080d30062
:102ca0000804e800f8ff3a004700200061046000d3
:102cb00005047400040464000d003200610040004b
:102cc000e080480060014900e081490003b8a500a8
:102cd000070032000603e8006538e10004003a000e
:102ce0008301d1000281d3008180d3000080d30012
:102cf000f87f20000830e100030035000803780069
:102d00006000b8006011b8004433dd00f300b20089
:102d10008301730000000600680447000294be00af
:102d20000094be00fc0447008694be008494be005c
:102d3000090078002c020700080078002a0207002a
:102d400099007800814f70000b003b000800be0026
:102d5000170207004f00b10003003700f3ff270000
:102d6000f2ff2f006110b9004f06be004f05be00f4
:102d70004f04be000080fa000000060081037800c6
:102d80006a0007000001be006000b8000478a300dc
:102d900013003a006220e10015003e000d003900ea
:102da0008301d1000281d3008180d3008301d1004f
:102db0000281d3008180d3008301d1000281d3003e
:102dc0008180d3000538b000c42add00f300b200d2
:102dd0008381720007f0a70003f0a0000000060046
:102de000f3ff2700f2ff2f006110b900fbff37004f
:102df00003ff2700f7ff37001400200021023700ef
:102e0000f4ff2f001f0237000001be00470007003b
:102e10000470a70003f0a10003f8a30013003a0018
:102e20006509b10010003200090035006928e10091
:102e300002003500010028000000050000004000ed
:102e4000818048008502e900fcff3a00000006008e
:102e5000f88f4200050035008100d1000080d300ca
:102e60008502e800fcff3a00000006008000eb004d
:102e7000000005004f89de00820178003d02370026
:102e80004f89de00820178004a0237006011b800e5
:102e90008302370081002000618055000b003d0057
:102ea0000b00200061fe2f000100e1001d00340036
:102eb00082817100610164008904d1000884d3001b
:102ec0000000e800faff3a00710020006100640091
:102ed0000300700002006000090032006104440039
:102ee000e0844c000988a500050032008b05e8004d
:102ef0006808e10002003a008904d1000884d30088
:102f0000f20f20000258e10005003d00c75ddd0022
:102f1000f907b200898075000800780000000600fb
:102f20000bf827008b00780000000500c70ade00c0
:102f3000f107b200f50fb20008003200e1cf420005
:102f4000020032000170a00024000500810f700013
:102f5000010032000408050044000500810f7000e4
:102f600002003a00140005008502e900000040005c
:102f700081c04800fcff3b000170a0002400050058
:102f80000004be00e9ff07000003be000405be0008
:102f90000200be00e5ff0700844f75000000060038
:102fa0000200be006450e100050036006420e1002c
:102fb000020036000968a30001003a000800be00c4
:102fc0000160a0004f0678004f05be004f04be0010
:102fd00000000600f0ff2f00f1ff2700f9ff370087
:102fe0002800fa00889fbe008a9fbe008c9fbe000a
:102ff00003866b0048ff07000028a30064003a0026
:103000000128a30067003a000008a30062003a000c
:103010000108a30065003a001e009000be08900061
:1030200081064000ed3fb100f4805700ee019000b2
:10303000111ab8008e099000311bb8009e0990004b
:10304000311cb800511db800f48557004600070038
:10305000fe0190003a0007008b85e8003e00070063
:103060008e09900040000700ee0190003400070038
:103070008b85e800380007008e09900040000700ab
:103080009e0990001b18b800890440000a8548007a
:10309000fe019000340007008b85e800380007002f
:1030a000ee019000300007008e0990001b18b80058
:1030b000890440000a8548000a98a30008003a00e5
:1030c0000402420085824a0006034b0087834b00be
:1030d00008044c0089844c000a054d008d06e90067
:1030e00084827200850273004c3add008502720012
:1030f0000100320015002000443ade001400b20046
:103100004538de00cb45dd000b007000c540de0019
:10311000cb4ddd008b8070004549de00cb55dd00d6
:103120000b017100c551de000d037800cefe0700d3
:1031300003f0a1000cf0a70003f0a0000aff370085
:103140001b18b8008502400006834800e0834b004e
:1031500060044c00070037001b18b800060340004d
:1031600087834800faff37001b18b8008703400028
:1031700008844800e0844c0060054d000000060013
:103180001b18b8000804400089844800faff370083
:103190000108a300f1fe3a005800be005801be002d
:1031a000e3ff37000008a300ecfe3a0009047800b2
:1031b000f9ff3700889fbe008a9fbe008c1f7800f1
:1031c0006fff070076ff330003866c006450e10058
:1031d000240032006420e100270032006150e10049
:1031e000220032006120e100210032008b85420084
:1031f000eb07b1000134b800003ab80008044200ff
:1032000089844a00013ab8000030b8008880400044
:1032100009014a000400330000004000818048009a
:10322000020149008b05e900c909dd008301700036
:103230000100320013002000c814de004814dd0035
:103240004709de001200b200c808de0008847000e2
:1032500010ff070001f0a1000cf0a70001f0a00092
:1032600058ff37006120e1005aff32000801be001c
:103270000200be00f7ff37006150e100fcff3a009a
:1032800054ff3700889fbe008a9fbe008c9fbe00ff
:10329000820578000004be0024ff07000800be007d
:1032a0006420e1000700390002003a00f1ff270026
:1032b000f0ff2f000160a00012022000d2d0880091
:1032c000550037006120e10003003a000b00a70021
:1032d00001f823005000370001f0a1000200210096
:1032e00093642400c4fe07000800be0004003500fb
:1032f000b2fd2000930c2400980107000004be00da
:103300000005eb000b00a6004f0dde0001f0a10050
:103310000004be0032982f0023ea2300a5ff070017
:103320000001eb0003f023000b00a70003f82300cb
:1033300052fd0700ee0007000000a7000a00a200ef
:10334000cffe07000b00e000030032000200200067
:1033500003f0230048fd070001f0a2000006be00b4
:10336000020020009304240092ff07000801be0021
:1033700042fd0700809fbe000c00be0022a22a0072
:10338000d3a723008bff07004f01be003bfd0700c2
:103390000004be0001f0a1000200200003982300f9
:1033a00095fe07000800be00190035000001be00b0
:1033b00080ff07000006be00b2c52900e3622300bb
:1033c0007cff070022222b00f3942b002bfd07002b
:1033d0000c01be0077ff0700e273280083c02300c2
:1033e00026fd07000c01be0072ff070042aa2a005a
:1033f000a3e22b0021fd07000c01be006dff0700ba
:103400000801be006bff07000801be001bfd07009e
:103410000a00a70001f0a2004f06be004f05be0043
:103420004f04be00000006000001eb0095ff3700ce
:10343000889fbe008a9fbe008c1f78000004be00db
:10344000bafe07000478a30026003a006120e100dc
:103450002500320009f8a30025003a006420e100ad
:1034600021003200f507b1000508a3000200320078
:1034700000004000818048006044b8000310200034
:103480000200200000004000818048000805440040
:1034900089854c000a0541008b8549000a055000ca
:1034a0008b855800030033000a00be00020474003c
:1034b000838474008301d1000281d300830f7100e3
:1034c000f0ff3a008904d1000884d300600149006c
:1034d00082017800c1adde00fb07b0006dfe070081
:1034e000b8fe37000960a0000800be00b5fe370036
:1034f00012022000d2d08800f0ff2f00f1ff270039
:10350000b0fe37001400fa00889fbe008a9fbe00fc
:103510008c9fbe000005be000206be00680047008a
:103520000c90be000a90be002f0007006400e1006e
:103530001a00320016003e006100e1001a0032005d
:103540006e049000fe0490000e0b90009e0b900005
:103550006011b8009e0590000b38b100d501200025
:1035600082817100610164008703d1000683d3006a
:103570008984d3000884d3008502e900f8ff3a006b
:1035800044fe07000df0a70001f0a000f6fd370093
:10359000f1ff2700f0ff2f00f3fd370001f82700af
:1035a00000002000f7ff37006000b800f5ff37008b
:1035b000e48240001078a30007003200640240005b
:1035c0001178a3003400be001401be0004003200d4
:1035d0000330a700000006003500be001501be0044
:1035e0000330a00000000600800078005002be00fa
:1035f0005003be004439de00f700b200f37f200024
:1036000003016100090032000218e10016003a00cf
:10361000850172008301730083817300000820001c
:1036200015003a00400020001300370085017200a9
:10363000830173008381730005003a0004a8be0073
:1036400006a8be00100020000b0037000201e900b0
:103650000402420085824a0006034b0087834b0028
:103660000748a300f9ff32000740a00004a8be00ed
:1036700006a8be002000200080009800920098005c
:1036800000000600889fbe008a9fbe00841f78004d
:103690003bfe07004f00780011003300f0ff2f00c1
:1036a000838f6c0006003b00040565000a00a7003c
:1036b0000800370009f0a6001000200008003700bd
:1036c000820f5400838f5c0003003900100020003b
:1036d00001003e000000200009f0a7000000ea0001
:1036e0004f05be004f04be000000e00000000600d1
:1036f0000001be000dfe07000470a70003f0a1004a
:103700006509b100160032000d0035006828e1009f
:1037100006003500f0ff2f00f1ff27000300e00056
:1037200013003b00010028000000050000004000dd
:10373000818048008502e900fcff3a00080037005c
:10374000f88f420002003c008000eb000000050002
:103750008100d1000080d3008502e800fcff3a0020
:103760000300e00002003b0060001000e080180051
:1037700000000600881f7800030478000300e000c2
:1037800007003d0060001000e08018006001190093
:10379000e081190002003b0001f02d00030037001a
:1037a0001400070008f0a70003f0a0004f04780001
:1037b00000000600881f7800030478000300e00082
:1037c00007003d0060001000e08018006001190053
:1037d000e081190002003b0001f02d0003003700da
:1037e0002f00070008f0a70001f0a0004f047800a8
:1037f00000000600889fbe00008270000402710075
:10380000048271002400320036432000c5002000ed
:103810008383cf000a0039000541b1008283cf00c5
:10382000070039000541b1008183cf000400390051
:103830000541b1008083cf00010039000541b1008e
:1038400085c353006022b800120032000a003b001a
:1038500084827200610260008301d1000281d30082
:103860008180d3000080d3000603e8008743e8008e
:10387000f7ff3a0007003700000040008180480051
:1038800002014900838149000603e9008743e900fa
:10389000f9ff3a00f4fc07004f04be0000000600e8
:1038a000889fbe008a9fbe000082700004027100e3
:1038b00004827100260032000004be000200be0037
:1038c0006011b8006b092000950220000182cf0032
:1038d0000a0039000541b1000082cf00070039001d
:1038e0000541b1000982cf00040039000541b10053
:1038f0000882cf00010039000541b10005425200a5
:10390000120032000a003b008281710061016400f4
:103910008100d1000080d3008984d3000884d300c3
:103920008b05e8000442e800f7ff3a000700370083
:103930000804440089844c0000004800818048004d
:103940008b05e9000442e900f9ff3a0051fd070048
:103950004f05be004f04be0000000600040020001a
:1039600000003700889fbe008a9fbe008c1f780031
:103970004f26dd0082fd070089fd33006120e10054
:10398000430032006250e10041003e003e00390039
:103990006420e1003c003200058255000f003b002e
:1039a0000402e80038003a00800f5300818f5b006a
:1039b000350034000800be0003f0a10001f0a600ad
:1039c00003f0a0000cf0a700acfb07007dfd370062
:1039d0000603430087834b000c4646000005530056
:1039e00081855b00020033000a03be000c00a000ca
:1039f0000402e900f6ff3b0085057800060243005b
:103a000087824b0004003a006000b80009f0a7006c
:103a100001f0a0006bfd37000002520081825a00c5
:103a20000704e000040033000603430087834b00d3
:103a30008b05e900faff3700090578000604be008f
:103a40000203be006011b80012fd0700e00f520033
:103a5000e08f5a000700350002003c000c08a3006c
:103a6000040032000601be0003f0a0000cf0a70025
:103a700082fb07000a85680001f0a1000af0a70098
:103a800001f0a0004ffd37000800be004dfd3700db
:103a9000100220000cf0a600d0d088004dfd3700a9
:020000040000fa
:103aa000556e0000686100006e6400006c650000e7
:103ab00064200000696e00007465000072720000ee
:103ac00075700000742c000020000000756e00006e
:103ad0006b6e00006f7700006e00000064730000e2
:103ae00050490000433300003345000050310000ce
:103af000323800004750000035300000320000002e
:103b00004133000000440000657600006963000056
:103b10006520000049440000203d00002000000016
:103b200020280000002900002c2000007265000001
:103b300076690000736900006f6e000020000000cd
:103b4000290a0000000a00000a2a00002a2a0000b0
:103b50002a2a00002a2a00002a2a00002a2a000015
:103b60002a2a00002a2a00002a2a00002a2a000005
:103b70002a2a00002a2a00002a2a00002a2a0000f5
:103b80002a2a00002a2a00002a2a00002a2a0000e5
:103b90002a2a00002a2a00002a2a00002a2a0000d5
:103ba0002a2a00002a2a00002a2a00002a2a0000c5
:103bb0002a2a00002a0a00002a200000574100009b
:103bc000524e0000494e0000472000002d2000000a
:103bd000746800006973000020700000726f0000bc
:103be00067720000616d00002077000061730000c3
:103bf000206300006f6d0000706900006c650000bc
:103c000064200000666f00007220000074680000ed
:103c100065200000777200006f6e000067200000d2
:103c2000202a00000a2a00002063000068690000c2
:103c3000702e00002054000068690000732000000e
:103c4000707200006f670000726100006d2000005c
:103c50006d61000079200000707200006f64000048
:103c60007563000065200000756e00006578000037
:103c7000706500006374000065640000206200004d
:103c800065680000766900006f7200002120000066
:103c90002a0a00002a200000456400006974000020
:103ca0002074000068650000206800006561000065
:103cb0006465000072200000666900006c65000009
:103cc00073200000746f000020700000726f00000d
:103cd00070650000726c00007920000064650000cf
:103ce000666900006e6500002074000068690000cd
:103cf000732000006368000069700000202a000043
:103d00000a2a0000206100006e6400002074000098
:103d10006f200000696e000073750000726500007e
:103d2000206300006f720000726500006374000081
:103d3000206f00007065000072610000746900006f
:103d40006f6e00002e2000002020000020200000c8
:103d50002020000020200000202000002020000063
:103d60002020000020200000202000002a0a00005f
:103d70002a20000020200000202000002020000039
:103d80002020000020200000202000002020000033
:103d90002020000020200000202000002020000023
:103da0002020000020200000202000002020000013
:103db0002020000020200000202000002020000003
:103dc00020200000202000002020000020200000f3
:103dd0002020000020200000202a00000a2a0000e5
:103de000204e00004f540000453a000020490000da
:103df00066200000746800006973000020770000ee
:103e000061730000206300006f6d000070690000a6
:103e10006c65000064200000666f000072200000e6
:103e20007468000065200000636f0000727200007b
:103e30006563000074200000636800006970000082
:103e40002c200000202000002a0a00002a20000068
:103e5000616e0000642000006f6e00006c7900004d
:103e6000206f000063630000757200007320000083
:103e700061740000207000006f7700006572000020
:103e80002d6f00006e200000286e00006f7400008f
:103e90002064000075720000696e00006720000059
:103ea000612000004d4300004c5200002020000023
:103eb00020200000202a00000a2a000020720000b2
:103ec0006573000065740000292c00002076000056
:103ed00065720000696600007920000074680000c7
:103ee000617400002041000056440000442000009e
:103ef000616e000064200000415600005353000032
:103f00002061000072650000206300006f6e0000f9
:103f10006e65000063740000656400002e200000e0
:103f2000202000002a0a00002a2000004f6e000016
:103f30002074000068650000205000004943000024
:103f40003234000048330000324700005032000095
:103f5000303200002c2000006e6f00007420000042
:103f6000636f00006e6e00006563000074690000fe
:103f70006e6700002041000056440000442000000d
:103f80002020000020200000202000002020000031
:103f9000202a00000a2a000020700000726f000032
:103fa0006475000063650000732000007468000001
:103fb00069730000206d00006573000073610000ec
:103fc00067650000206f00006e6c00007920000023
:103fd00061740000207000006f77000065720000bf
:103fe0002d750000702e0000202000002020000011
:103ff00020200000202000002020000020200000c1
:104000002a0a00002a2a00002a2a00002a2a000080
:104010002a2a00002a2a00002a2a00002a2a000050
:104020002a2a00002a2a00002a2a00002a2a000040
:104030002a2a00002a2a00002a2a00002a2a000030
:104040002a2a00002a2a00002a2a00002a2a000020
:104050002a2a00002a2a00002a2a00002a2a000010
:104060002a2a00002a2a00002a2a00002a2a000000
:104070000a00000046610000737400002052000036
:10408000432000004f730000630a00000046000058
:10409000617300007420000052430000204f0000b4
:1040a000736300002077000069740000682000003e
:1040b000504c00004c0a00000050000072690000e3
:1040c0006d61000072790000204f000073630000f2
:1040d00020280000585400002c2000004853000005
:1040e0002c20000045430000290a00000050000079
:1040f000726900006d61000072790000204f0000bd
:104100007363000020280000585400002c20000099
:10411000485300002c2000004543000029200000e7
:104120007769000074680000205000004c4c0000cb
:104130000a00000053650000636f00006e64000019
:1041400061720000792000004f730000630a0000d4
:10415000004c00006f770000205000006f770000d7
:104160006572000020520000432000004f730000e1
:10417000630a000000460000617300007420000024
:1041800052430000204f0000736300002f310000f5
:10419000360a000000460000617300007420000031
:1041a00052430000204f0000736300002f4e0000b8
:1041b0000a000000556e00006b6e00006f77000073
:1041c0006e2000006f730000636900006c6c0000db
:1041d000617400006f7200002074000079700000ac
:1041e000652e0000000a00004465000076690000aa
:1041f0006365000020680000617300002062000019
:10420000656500006e200000696e000020730000ec
:104210006c65000065700000206d00006f64000098
:10422000650a0000000a000044650000766900008d
:1042300063650000206800006173000020620000d8
:10424000656500006e200000696e000020690000b6
:10425000646c0000652000006d6f00006465000064
:104260000a0000000a520000657300006574000037
:104270002063000061750000736500003a200000b3
:10428000005000006f770000657200002d6f000085
:104290006e2e00000a000000536f000066740000dc
:1042a0007761000072650000205200006573000015
:1042b000657400002e0a00000057000061740000c1
:1042c00063680000646f000067200000546900000c
:1042d0006d6500006f750000743a0000200000005a
:1042e0000a0000004d4300004c5200002061000015
:1042f0007373000065720000746900006f6e000047
:104300002e0a000000420000726f0000776e00006d
:104310002d6f0000757400002e0a0000005400008c
:104320007261000070200000436f00006e660000a4
:104330006c690000637400002e0a00000049000050
:104340006c6c000065670000616c00002043000099
:104350006f6e000064690000746900006f6e0000f9
:104360002e0a0000004300006f6e00006669000026
:104370006775000072610000746900006f6e0000d4
:10438000204d0000697300006d610000746300003f
:10439000682e00000a000000556e00006b6e0000e1
:1043a0006f7700006e2000007265000073650000ea
:1043b000742e00000a00000045720000726f0000b9
:1043c00072200000747200006170000070650000cf
:1043d000643a00002000000050720000696f000085
:1043e00072690000747900003a200000002c00007f
:1043f0002056000065630000746f0000722000000a
:104400006e7500006d620000657200003a200000c9
:10441000000a00000a00000045720000726f0000f0
:1044200072200000696e0000202e00002e2f000078
:104430002e2e00002f6c0000696200002f73000018
:10444000726300002f7000006963000032340000c6
:104450005f750000746900006c2e0000632000008e
:104460006c6900006e6500002034000036390000e1
:104470003a20000041530000534500005254000010
:1044800028750000313600005f620000726700008e
:10449000682000003c3d0000203100002920000081
:1044a00066610000696c0000656400002e0a00006f
:1044b00000450000727200006f7200002069000069
:1044c0006e2000002e2e00002f2e00002e2f000048
:1044d0006c690000622f000073720000632f0000ff
:1044e0007069000063320000345f000075740000e2
:1044f000696c00002e630000206c0000696e0000f3
:104500006520000034370000353a000020410000eb
:10451000535300004552000054280000665f00001d
:1045200062720000672000003c2000003635000069
:1045300035330000352e00003529000020660000cc
:10454000616900006c650000642e00000a00000034
:1045500055410000525400003120000070610000fd
:10456000726900007479000020650000727200001a
:104570006f7200000a000000554100005254000014
:104580003120000066720000616d0000696e00005d
:104590006720000065720000726f0000720a000060
:1045a000005500004152000054310000206f00000f
:1045b0007665000072720000756e000020650000d4
:1045c000727200006f7200000a0000004572000065
:1045d000726f000072200000696e0000202e000043
:1045e0002e2f00002e2e00002f6c000069620000ac
:1045f0002f730000726300002f70000069630000d9
:10460000323400005f75000061720000742e0000fb
:10461000632000006c6900006e650000203300001c
:10462000363100003a20000041530000534500009d
:104630005254000028750000333200005f62000011
:104640006175000064520000617400006520000084
:104650003e3d00002031000030300000304c0000b2
:104660002920000066610000696c0000656400009c
:104670002e0a000000550000415200005432000094
:104680002070000061720000697400007920000051
:1046900065720000726f0000720a00000055000091
:1046a0004152000054320000206600007261000098
:1046b0006d6900006e6700002065000072720000e6
:1046c0006f7200000a0000005541000052540000c3
:1046d000322000006f7600006572000072750000e5
:1046e0006e20000065720000726f0000720a000008
:1046f00000450000727200006f7200002069000027
:104700006e2000002e2e00002f2e00002e2f000005
:104710006c690000622f000073720000632f0000bc
:104720007069000063320000345f000075610000b2
:10473000727400002e630000206c0000696e00009f
:104740006520000037350000313a000020410000ac
:1047500053530000455200005428000075330000f8
:10476000325f000062610000756400005261000069
:1047700074650000203e00003d2000003130000044
:10478000303000004c290000206600006169000004
:104790006c650000642e00000a00000045720000f5
:1047a000726f000072200000696e0000202e000071
:1047b0002e2f00002e2e00002f6c000069620000da
:1047c0002f730000726300002f7000006963000007
:1047d000323400005f730000657200006961000000
:1047e0006c2e0000632000006c6900006e65000004
:1047f00020380000303a0000204900006e760000aa
:10480000616c000069640000205500004152000006
:104810005400000030780000004500007272000073
:104820006f720000206900006e2000002e2e000034
:104830002f2e00002e2f00006c690000622f000058
:1048400073720000632f0000706900006332000083
:10485000345f00007365000072690000616c000045
:104860002e630000206c0000696e000065200000cf
:1048700032390000353a0000204900006e76000011
:10488000616c000069640000205500004152000086
:104890005400000045720000726f0000722000009a
:1048a000696e0000202e00002e2f00002e2e00002a
:1048b0002f6c0000696200002f730000726300001b
:1048c0002f70000069630000323400005f73000045
:1048d00065720000696100006c2e0000632000001a
:1048e0006c6900006e650000203300003334000066
:1048f0003a200000496e0000766100006c690000fb
:1049000064200000554100005254000000000000e7
:1049100050c3000030750000204e0000102700003a
:1049200088130000b80b0000d0070000e803000067
:10493000f40100002c010000c80000006400000029
:10494000320000001e000000140000000a000000f9
:10495000050000000300000002000000010000004c
:104960000503000002010000321e0000140a0000ce
:104970000503000002010000050300000201000021
:10498000050300000201000045720000726f000084
:1049900072200000696e0000202e00002e2f000003
:1049a0002e2e00002f6c0000696200002f730000a3
:1049b000726300002f700000696300003234000051
:1049c0005f740000696d0000657200002e630000d6
:1049d000206c0000696e0000652000003538000082
:1049e0003a2000004153000053450000525400009b
:1049f000286600005f740000696300006b730000ac
:104a0000203c000020360000353500003335000022
:104a10002e3500002920000066610000696c00004e
:104a2000656400002e0a000000450000727200005c
:104a30006f720000206900006e2000002e2e000022
:104a40002f2e00002e2f00006c690000622f000046
:104a500073720000632f0000706900006332000071
:104a6000345f0000746900006d650000722e000064
:104a7000632000006c6900006e65000020370000b4
:104a8000363a000020410000535300004552000018
:104a900054280000665f000074690000636b00002a
:104aa000732000003c200000363500003533000044
:104ab000352e0000352900002066000061690000e5
:104ac0006c650000642e00000a00000045720000c2
:104ad000726f000072200000696e0000202e00003e
:104ae0002e2f00002e2e00002f6c000069620000a7
:104af0002f730000726300002f70000069630000d4
:104b0000323400005f740000696d000065720000bf
:104b10002e630000206c0000696e0000652000001c
:104b200031360000303a00002041000053530000ad
:104b30004552000054280000753800005f54000002
:104b4000434b000050530000203c00003d2000007b
:104b50003329000020660000616900006c650000d8
:104b6000642e00000a0000000a0a0000596f0000cd
:104b700075720000206300006c6f0000636b000022
:104b800020630000686f000069630000652000007a
:104b900066610000696c000065640000207400001c
:104ba0006f200000696e00006974000069610000f8
:104bb0006c6900007a6500002e200000536500003b
:104bc000652000002e2e00002f2e00002e2f00004a
:104bd0006c690000622f000073720000632f0000f8
:104be0007069000063320000345f0000636c0000f5
:104bf0006f6300006b66000072650000712e00009c
:104c0000632000006c6900006e6500002031000028
:104c100034360000206600006f720000206d000036
:104c20006f72000065200000646500007461000080
:104c3000696c0000732e00000045000072720000d5
:104c40006f720000206900006e2000002e2e000010
:104c50002f2e00002e2f00006c690000622f000034
:104c600073720000632f000070690000633200005f
:104c7000345f0000636c00006f6300006b6600002f
:104c800072650000712e0000632000006c69000056
:104c90006e65000020310000373200003a2000002d
:104ca0004153000053450000525400002875000095
:104cb000385f0000736f00007572000063650000cc
:104cc000203c000020380000292000006661000020
:104cd000696c0000656400002e0a000000000000fe
:104ce00045720000726f000072200000696e0000c3
:104cf000202e00002e2f00002e2e00002f6300001b
:104d00006861000070310000342f00004d69000020
:104d1000635f0000536100006d7000006c6500006f
:104d2000735f00004d6100006e6100006765000068
:104d3000722e0000632000006c6900006e650000a8
:104d400020310000343a000020410000535300009d
:104d50004552000054280000302900002066000061
:104d6000616900006c650000642e00000a0000000c
:104d70000a2e00002e2f00002e2e00002f630000b0
:104d80006861000070310000342f00006164000091
:104d9000635f0000696d0000706c00002e6300000e
:104da0002c20000062750000696c00007420000077
:104db0006f6e000020410000707200002031000082
:104dc0003820000032300000313500002061000042
:104dd00074200000313700003a340000323a0000fd
:104de000303100000a0000000a2e00002e2f0000c3
:104df0002e2e00002f63000068610000703100005b
:104e0000342f00004d610000696e00002e63000029
:104e10002c20000062750000696c00007420000006
:104e20006f6e000020410000707200002031000011
:104e300038200000323000003135000020610000d1
:104e400074200000313700003a340000323a00008c
:104e5000303100000a000000636f00006e76000031
:104e600065720000744100004443000031280000d6
:044e70002900000015
:020000040000fa
:104e74000400fa00000f78001107980005002100d3
:104e84001e0290009e017800120020008000eb00ba
:104e940000102000020007000080fa000000060055
:104ea4002800fa00889fbe008a9fbe00600f980009
:104eb400710f980002179800131798002417980090
:104ec40035179800ee0a9000240020001100090014
:104ed4008402d80000027800140798006e0a90003b
:104ee400e20f5200fb0032000e1290000402420056
:104ef40004037800ae1290003e1290009e119000c0
:104f040006017800fe0890001e009000e4ff0700f0
:104f14000e1290000402420084037800fe0a9000fe
:104f24000e12900004834200ae1290003e129000d4
:104f34009e11900007017800860078001e00900002
:104f4400d7ff07000002eb00040f7800dc003700f5
:104f54009e0278000e12900084aab90084027800a0
:104f64007e0a900004824200240798009e0290006a
:104f74000e12900084aab900840278002e029000d8
:104f840004824200340798001e02780004024200a2
:104f9400840278000e12900084aab900840278007a
:104fa4007e0a90000482420044079800ce029000da
:104fb4000e12900004824200540798001e027800ea
:104fc400cfa2de000400be00a9f7070084d12200ae
:104fd40045442500b61f220097012400fff707006f
:104fe4000002be000203be000404be000605be00ab
:104ff4006e0a9000cfa2de000400be009ff70700f7
:105004000002be000400be005bf707000002be0001
:105014000203be000800be000a01be0075f60700c8
:105024000002be000203be000400be000601be0072
:1050340033f907000002be000400be006bf607004f
:105044000002be0064079800750798001e027800ed
:10505400cfa2de000400be0085f7070084d1220041
:1050640045442500b61f220097012400dbf7070002
:105074000002be000203be000404be000605be001a
:105084006e0a9000cfa2de000400be007bf707008a
:105094000002be000400be0037f707000002be0095
:1050a4000203be000800be000a01be0051f607005c
:1050b4000002be000203be000400be000601be00e2
:1050c4000ff907000002be000400be00d5f8070077
:1050d4000002be00040f9800150f98005e029000b5
:1050e4004322dd00be129000048242001402be007e
:1050f4006e019000fe0190000400be002cf8070031
:105104000002be000404be005e0290004322dd00e3
:10511400be12900004824200b40290002402900067
:105124000e0990009e0990000400be0020f80700bc
:105134000002be000401be000800be00cef5070058
:105144000002be00240f9800350f98005e02900004
:105154004322dd00be12900004824200b40290009b
:10516400240290006e019000fe0190000400be0035
:105174000ff807000002be000404be005e029000a7
:105184004322dd00be129000048242001402be00dd
:105194000e0990009e0990000400be0004f8070068
:1051a4000002be000401be000800be00b1f5070005
:1051b4000002be00440f9800550f98003e02900074
:1051c4004322dd00ae129000048442004e0290009f
:1051d4004322dd00be129000048242001402be008d
:1051e4002e099000be0990000400be00a1f507003e
:1051f4000002be00048cbe003e0290004322dd008b
:10520400ae129000048442004e0290004322dd005e
:10521400be12900004824200b40290002402900066
:105224004e099000de0990000400be0091f50700cd
:105234000002be0024049800350498002e02900059
:105244004322dd00ae129000048442004e0290001e
:105254004322dd00be129000048242001402be000c
:105264002e099000be0990000400be0082f50700dc
:105274000002be00048cbe002e0290004322dd001a
:10528400ae129000048442004e0290004322dd00de
:10529400be12900004824200b402900024029000e6
:1052a4004e099000de0990000400be0072f507006c
:1052b4000002be0024049800350498001e0fe80084
:1052c4001e0290009e027800848f520020ff350059
:1052d400580037007e0a900024079800ae02900020
:1052e4000e12900004824200340798003e0290009f
:1052f4004322dd00ae129000048442002e0290008e
:105304004322dd009e129000048242001403be007a
:105314003e0290004322dd009e129000048242006f
:105324001402be000401be000600be0051f50700d1
:105334000002be00048cbe003e0290004322dd0049
:10534400ae129000048442002e0290004322dd003d
:105354009e1290000482420024039000b403900043
:105364003e0290004322dd009e129000048242001f
:10537400b4029000240290000401be000600be00a6
:105384003cf507000002be00240498003504980090
:105394002e0290004322dd00ae12900004844200ed
:1053a4002e0290004322dd009e12900004824200ef
:1053b4001403be003e0290004322dd009e129000c2
:1053c400048242001402be000401be000600be00b6
:1053d40029f507000002be00048cbe002e029000d6
:1053e4004322dd00ae129000048442002e0290009d
:1053f4004322dd009e1290000482420024039000a8
:10540400b40390003e0290004322dd009e129000ff
:1054140004824200b4029000240290000401be0001
:105424000600be0014f507000002be002404980024
:10543400350498004f05be004f04be000080fa00fa
:10544400000006001000fa00881f7800600798002a
:10545400710798000408200014079800ee009000db
:105464007e00900082fe07006e0290001402be00cf
:1054740002002000033824000400be00b7f5070032
:105484000002be006e039000048bbe006e0290000a
:10549400b40290002402900002002000033824008b
:1054a4000400be00adf507000002be006e039000cc
:1054b40024039800350398001e0290004322dd0067
:1054c400ee029000048442001e0290004322dd009c
:1054d400ee029000048242001402be00020020008a
:1054e400033824000400be009cf507000002be003f
:1054f400048cbe001e0290004322dd00ee029000e8
:10550400048442001e0290004322dd00ee0290005b
:1055140004824200b40290002402900002002000a1
:10552400033824000400be008cf507000002be000e
:10553400240498003504980014002000040f780017
:105544004d0037001e0278004322dd00ee02900079
:10555400048242001402be0002002000033824002a
:105564000400be007df507000002be002407980079
:10557400350798001e0278004322dd00ee029000f9
:1055840004824200b4029000240290000200200031
:10559400033824000400be0070f507000002be00ba
:1055a40044079800550798001e0278004322dd0046
:1055b400ee02900004844200041020001e025200f7
:1055c4004322dd00ee029000048242001402be0079
:1055d40002002000033824000400be005ff5070029
:1055e4000002be00048cbe001e0278004322dd00cf
:1055f400ee02900004844200041020001e025200b7
:105604004322dd00ee02900004824200b4029000c6
:105614002402900002002000033824000400be008d
:105624004ef507000002be002404980035049800db
:10563400041020001e0252004322dd00ee029000fe
:10564400048242002e039000be039000068abe002e
:10565400041020001e0252004322dd00ee029000de
:10566400048242004e039000de039000260298005c
:10567400370298001e0fe8001e0290009e02780078
:10568400848f5200afff35004f0478000080fa0089
:10569400000006000800fa00889fbe00008fbe00cc
:1056a40022079800330798001e01be001e00be00aa
:1056b400bff607000002be000404be002e019000e5
:1056c400be0190002e009000be009000b8f60700c6
:1056d4000002be000401be000800be0066f407001c
:1056e4000002be000400be0050f707000002be0026
:1056f4000400be004f04be000080fa000000060053
:105704001e00fa00889fbe00600f98000002eb00a4
:10571400040f78001400200034079800300037008c
:105724003e0290004322dd00ee0a90000482420013
:10573400b4029000240290003e0390004333dd0045
:10574400ee0b9000068343001603be000401be0066
:105754000600be00cfff07000002be0018c0b30061
:105764001e019000ae0190000400be00a3f50700e6
:1057740000027800e00f520001003c000044eb00fe
:10578400e04f5400130032003e029000040f7800f2
:105794003e0290004322dd00ee0a900004824200a3
:1057a400b4029000240290003e0390004333dd00d5
:1057b400ee0b9000068343001603be000401be00f6
:1057c4000600be00b3ff07000002be0014079800e5
:1057d400250798003e0290000402e8003407980070
:1057e400be029000f40f2000848f5200ccff3400de
:1057f4001e0278000482e9004322dd00ee0a9000d4
:1058040004824200b4029000240290001e03780037
:105814000683e9004333dd00ee0b9000068343006a
:105824001603be000401be000600be0099ff070077
:105834000002be0044079800550798001e02780035
:105844004322dd00ee0a900004824200b40290007c
:10585400240290001e0378004333dd00ee0b900019
:10586400068343001603be000401be000600be000a
:1058740088ff07000002be006407980075079800bf
:105884001e0278000482e8004322dd00ee0a900044
:1058940004824200b4029000240290001e037800a7
:1058a4000683e8004333dd00ee0b900006834300db
:1058b4001603be000401be000600be0075ff07000b
:1058c4000002be00040f9800150f98004e019000ce
:1058d400de0190006e009000fe0090009ff407002f
:1058e4000002be0018c0b30002002000030424001c
:1058f4000400be003ff5070000027800e00f5200ec
:10590400010035000044eb00e04f540011003a0060
:105914000e0990009e0990006e009000fe00900019
:105924008ef407000002be0018c0b300020020007d
:10593400030424000400be002ef5070000027800d2
:10594400e00f5200010035000044eb00e04f54002a
:10595400020032006022b800640037001e027800a2
:105964000402e9004322dd00ee0a900004824200b2
:10597400b4029000240290001e0378000603e9009c
:105984004333dd00ee0b9000068343001603be0094
:105994000401be000600be003eff07000002be0078
:1059a40044079800550798001e0278000402e80096
:1059b4004322dd00ee0a900004824200b40290000b
:1059c400240290001e0378000603e8004333dd0040
:1059d400ee0b9000068343001603be000401be00d4
:1059e4000600be002bff07000002be00040f980053
:1059f400150f98000e0990009e0990004e0090002b
:105a0400de0090009bf307000002be0002002000ad
:105a140003f023000400be00e5f507000002be0009
:105a24000404be006e029000fe0290000401be0059
:105a34000400be0090f307000002be000401be0093
:105a44004e009000de0090008af307000002be00c2
:105a54000e0990009e0990000400be0086f3070022
:105a64000002be000401be000800be003bf40700b3
:105a74000002be00240f9800350f98001e02780023
:105a8400cfa2de000400be00fcf407000002be004a
:105a94002e099000be0990000400be0076f30700b2
:105aa4000002be000401be000400be0072f3070041
:105ab4000002be0002002000a35f24000400be0018
:105ac400bbf507000002be000200200003382400da
:105ad4000400be0021f407000002be00440f980039
:105ae400550f98004e0a9000de0a90000400be0094
:105af4004f04be000080fa00000006000000fa0017
:105b0400e80507000080fa00000006000400fa001f
:105b1400004f7800110798001e427800e04f5200b1
:105b240002003a001e0090004c0007000080fa00ba
:105b3400000006000000fa0011eea90017eea9000b
:105b44001beea9001deea90017eea800a431220047
:105b54009500200034d0880045d088006022b80029
:105b640014d0880025d0880015eea9000200070093
:105b74000080fa00000006000000fa0014d0800043
:105b840025d0800061024200e0824a0014d08800df
:105b940025d0880016d0800027d0800034d0800023
:105ba40045d08000840f5300858f5b0004003600cd
:105bb400050007006022b80014d0880025d08800b2
:105bc4000080fa00000006000000fa00a4708000c3
:105bd4000482ea004f22de00044278000482fb00c3
:105be4004f22dd00a6708000f5ff270085026300c8
:105bf40005027200a47088000080fa00000006000c
:105c04003600f800809fbe00829fbe00849fbe00c5
:105c1400869fbe003200f80000202000900188001a
:105c2400000000000000fa0064a121004546800045
:105c3400050a780000d52900080007000080fa0052
:105c44003200f9004f03be004f02be004f01be00f8
:105c54004f00be003600f900004006000200fa00c2
:105c6400000f780094d08000e00f520003003a0047
:105c74001e02780094d088000000fe000080fa0024
:105c8400000006000600fa0010079800210798009b
:105c94001e029000040f78001e029000ae029000d5
:105ca400402ade0004027800a40288001e02780064
:105cb4001482ba0005002000c023dd000600200085
:105cc4001e0278001402ba000500200004027300ca
:105cd400858273000400be000080fa000000060004
:105ce4000e00fa0000002000f10f2000e5ff07007d
:105cf4000002be00340798004507980020002000e9
:105d0400f10f2000dfff07000002be0054079800d7
:105d14006507980014c0b300044f780064d62900c6
:105d24001407980064d62900240798003e039000c5
:105d3400ce039000d4e4210005002000840f53001a
:105d4400858f5b0003003a00e4d62900140798000d
:105d5400020037000042eb00044f78005e0390001d
:105d6400ee0390003400240005002000840f53004b
:105d7400858f5b0003003a0004d8290024079800ab
:105d84000000000030d82900a30107003e00900065
:105d9400ce0090003102070000d929009e010700bf
:105da4001e0090009c01070030d929009a010700c9
:105db4005e009000ee0090002802070000d9290040
:105dc400950107002e0090009301070000da2900d6
:105dd400910107001e427800e04f520002003a0091
:105de40030da29008c0107000080fa000000060068
:105df4000000fa00143a80004c22de006742620080
:105e04000482fb00cfa2de00760020000700200001
:105e1400860f5200878f5a0021003e0004060100bd
:105e240007003700090037000b0037000d0037006a
:105e34000f0037001100370013003700150037003a
:105e4400a0032a00740107001800370070042a0018
:105e54007101070015003700d0052a006e01070004
:105e64001200370070072a006b0107000f0037008b
:105e7400a0092a00680107000c003700900a2a00d4
:105e84006501070009003700b00b2a006201070012
:105e940006003700b00c2a005f010700030037003a
:105ea400a00d2a006dff0700000000000080fa002a
:105eb400000006000200fa000042eb00044f7800e4
:105ec400043a800068026200e00f520003003200ce
:105ed400300f2a00500107004067a900043a8000ef
:105ee40064026200e00f52000300320030112a0005
:105ef400490107004047a90020132a004601070072
:105f0400043a800061026200e00f52000e00320089
:105f140014c0b300044f780010142a003e01070097
:105f24004007a9004027a9000002eb0094d0880094
:105f34000002eb00a4d0880064a121008002eb00e1
:105f4400050a78004e003700053a8000040420005a
:105f540004826200e00f520006003200c0142a00de
:105f64002d01070014c0b300044f780040c7a900f6
:105f740040e7a900043a800070026200e00f52007a
:105f84000e00320014c0b300044f7800d0152a006c
:105f940021010700a4d08000e00f5200030032006a
:105fa400a4d08000040078001b01070000172a0019
:105fb400190107004087a90040e7a900053a8000bd
:105fc4000408200004826200e00f52000500320041
:105fd40014c0b300044f780020172a000e010700f4
:105fe40040e7a900043a800062026200e00f520018
:105ff4000500320014c0b300044f780030182a00a2
:10600400050107004027a900053a80000400280084
:1060140004826200e00f52000500320014c0b30095
:10602400044f7800f0182a00fb00070041e7a9009c
:10603400053a80000400240004826200e00f52004c
:106044000500320014c0b300044f7800f0192a0090
:10605400f100070041c7a900053a80000420200090
:1060640004826200e00f52000500320014c0b30045
:10607400044f7800301b2a00e70007004127a900dd
:106084001e427800e04f520002003a00c01c2a0071
:10609400e100070094d08000e00f52001d003200a0
:1060a400c01d2a00dc00070094d0800004007800a2
:1060b400d900070064a1210014027800e00f520007
:1060c4000d003200c01e2a00d3000700b4d08000a7
:1060d4004822de006f426200044078004801070055
:1060e400701f2a00cc00070064a12100144278002c
:1060f400044078004201070090202a00c6000700ef
:106104000002eb0094d0880064a121008002eb001f
:10611400050a7800f2fe070035ff07000080fa0048
:10612400000006000200fa00000f780081fe07005c
:1061340072fe070000402800310020002d020700f5
:106144005cff07001e007800b30007000080fa001f
:10615400000006000800fa00881f78002007980055
:10616400310798002e009000be00900025f3070030
:106174000002be00048fbe001e00be0042f30700f2
:106184000002be000401be002e009000be0090007c
:10619400b8f107000002be0018c0b30002002000de
:1061a40003f023000400be0012f30700000278008d
:1061b400e00f5200010035000044eb00e04f5400b2
:1061c400020032001e02be00040037001600200048
:1061d400070020003e024300ae824b000400be00d4
:1061e4004f0478000080fa00000006000600fa0060
:1061f400881f780010079800210798001e0090005f
:10620400ae009000fff207000002be00040f780009
:106214001e027800050020000400be001af30700e7
:106224000002be000401be001e009000ae009000fb
:1062340090f107000002be0018c0b3000200200065
:1062440003f023000400be00eaf207000002780015
:10625400e00f5200010035000044eb00e04f540011
:10626400020032001e027800010037001e02e8001e
:10627400040078004f0478000080fa000000060053
:106284000e00fa00889fbe0020079800310798008e
:1062940042079800540798006507980014c0b3009b
:1062a400ce029000e18f5200010036000042eb0064
:1062b400c1202a000440780014fe07004e0290001a
:1062c400e00f520018003a002e009000be0090002b
:1062d400edf207000004be005e009000ee009000a6
:1062e400e9f207000002be000401be000800be007f
:1062f4001af207000002be00020020000318240066
:106304000400be0015f207000002be0002002000d7
:1063140003f823000400be0056f107000002be008b
:10632400048fbe00170037002e009000be009000be
:10633400d5f207000004be005e009000ee0090005d
:10634400d1f207000002be000401be000800be0036
:1063540002f207000002be0002002000030824002d
:106364000400be00fdf107000002be000200200090
:1063740003f823000400be003ef107000002be0043
:10638400048fbe0018c0b30002f82f00f377240076
:106394001e00be0097f2070000027800e00f5200d2
:1063a400010035000044eb0091252a0008407800e4
:1063b400d6fd07001e00be008cff07000002780017
:1063c400040078004f04be000080fa0000000600bc
:1063d4000200fa00004f7800e4d08000e10f520080
:1063e40003003200e20f52000400320006003700be
:1063f4001e4078002c040700050037001e4078007a
:10640400a204070002003700e03c2a0013fe070044
:106414000080fa00000006000200fa00000f780075
:10642400050037001e02780014427800044078000a
:10643400e7ff07001e0fe8001e02780014427800f0
:10644400e04f5200f7ff3a000080fa000000060017
:106454000a00fa002007980031079800024f9800bc
:106464003e029000e00f520002003a000002eb00ee
:10647400260037000002eb00140798000002eb002e
:1064840014079800190037000e4a9000e04f52009c
:10649400040032003a01070000427800044f7800fb
:1064a400030037002301070000427800044f7800fe
:1064b4001e427800ea4f5200100032001e4278005b
:1064c400ed4f52000d0032001e427800ae029000e3
:1064d400844a78002e0290000402e8002407980001
:1064e4001e0290000402e800140798009e02900027
:1064f4003e029000848f5200e3ff3900ae02900008
:106504000042eb00844a78001e02900004007800e8
:106514000080fa00000006000400fa00000f780072
:10652400110798001e0290000041eb0084007800df
:106534001e007800c6ff07000002780004007800ff
:106544000080fa00000006000400fa00000f780042
:10655400110798001e02900012c0b3008400780056
:106564001e007800baff07000002780004007800db
:106574000080fa00000006000400fa00204798009a
:106584002e4290000482fb004422de00044f780077
:106594001e427800e94f52000500360075c3b3006f
:1065a4001ec242000440780089ff0700040037003f
:1065b40005c3b3001ec242000440780084ff0700f4
:1065c4002e4290006f4f62001e427800e94f520045
:1065d4000500360075c3b3001ec2420004407800b3
:1065e4007bff07000400370005c3b3001ec242004e
:1065f4000440780076ff07000080fa0000000600df
:106604000200fa00004f7800a0402a0082ff070031
:106614001e407800d8ff07000080fa000000060042
:106624000400fa0010079800a0402a007aff07002f
:106634001e0290004822de00044f78001e407800bd
:10664400cdff07001e029000044f78001e40780022
:10665400c9ff07000080fa00000006000600fa00e7
:106664001007980021079800a0402a006aff07003d
:106674001e029000ae029000482ade00044f78000b
:106684001e407800bcff07001e029000ae0290007e
:10669400402ade00044f78001e407800b6ff070051
:1066a4001e029000ae029000482bdd004822de005e
:1066b40004027300c82ade00044f78001e407800ec
:1066c400adff07001e029000044f78001e407800c2
:1066d400a9ff07000080fa00000006000a00fa0083
:1066e400004f98000042eb00044f78000e4a9000df
:1066f4001447980004c3b3002447980004c3b300ac
:106704003447980004c3b300444798000042eb00a8
:10671400544798009e42900074ccb30084cf52003a
:10672400060036002e42900004c2e8002447980078
:106734001e4290008443b000144798009e4290008b
:1067440034c6b30084cf5200070036002e429000b6
:106754000442e800244798009e429000c4c9b30054
:1067640004c24200144798000042eb00044f780032
:10677400240037009e4278000582fb00454b2a0026
:1067840004824200944278001e42900084cf52005a
:106794001b003e009e4378000782fb004222de007d
:1067a400044278008482fb000503e8000482fb00b5
:1067b4000402e8000482e8006e427a008442780011
:1067c4009e4378000782fb00c74b2a0004824300e3
:1067d4001442780004c242008682e80004f77a007a
:1067e4009e4278000582fb00454b2a000482420049
:1067f400144278009e42900004c25200144798004c
:106804001e4fe8001e427800e74f5200d9ff3600c1
:106814000042eb00544798000e82e8000400780020
:10682400fdfe07000080fa00000006000c00fa00dc
:10683400500798000042eb00044f78005e0290007d
:106844001407980004c3b3004447980004c3b3007a
:106854005447980004c3b3006447980004c3b300ca
:106864007447980004c3b300044f98000042eb003f
:10687400044f7800250037009e4278000582fb0013
:106884008402420084482a00048242009402780070
:106894001e029000848f52001b003e009e4378002d
:1068a4000782fb004222de00044278000483fb00de
:1068b4000482fb00640242006e427a008442780043
:1068c4009e4378000782fb0063026200074b2a00a4
:1068d400048243001442780004c24200e4024300ec
:1068e40004f77a009e4278000582fb00840242008d
:1068f40084482a0004824200140278009e02900018
:1069040004825200140798001e4fe8001e427800cb
:10691400f34f5200d8ff36000042eb00144f9800aa
:106924006402470004007800bbfe07000080fa0000
:10693400000006000000fa00e4d08000e10f5200dd
:1069440003003200e20f5200040032000600370058
:10695400ea020700004278000600370060030700df
:106964000042780003003700d0402a00bbfc070037
:106974000042eb00044078000080fa0000000600aa
:106984000200fa00ebff070000427800044f780091
:106994001e4078008efe07001e42780004407800f6
:1069a4000080fa00000006000000fa00e4d0800035
:1069b400e10f520003003200e20f520004003200e3
:1069c40006003700c60207000042780006003700c0
:1069d4003c0307000042780003003700a0442a006b
:1069e4009efc07000042eb00044078000080fa009f
:1069f400000006000400fa00008fbe00140020000e
:106a0400e4d088001e00be00c90207000080fa001e
:106a1400000006000400fa00004f780011079800f7
:106a24001e427800e04f520002003a001e0090001f
:106a34008afc07000080fa00000006000a00fa0041
:106a4400889fbe00300798004107980084dc260028
:106a540045c62400048fbe003e02900005002000bd
:106a64000400be0008f107000002be001e01be00c3
:106a74000400be00cef107000002be000404be0004
:106a84004e029000050020000400be00fef0070046
:106a94000002be000401be000800be002ff0070083
:106aa4000002be0002002000a34724000400be0030
:106ab4002af007000002be00048fbe0018c0b30015
:106ac40002f82f00f37724001e00be00c9f007006f
:106ad40000027800e00f5200010035000044eb0092
:106ae400414c2a0008407800caff07001e00be007f
:106af400befd070000027800240798002e029000d3
:106b0400040078004f04be000080fa000000060074
:106b14000a00fa00889fbe003007980041079800d9
:106b240084dc260045c62400048fbe003e0290008b
:106b3400050020000400be00d3f007000002be00e0
:106b44001e01be000400be0099f107000002be0051
:106b54000404be004e029000050020000400be00a4
:106b6400c9f007000002be000401be000800be0018
:106b7400faef07000002be000240220043972400ff
:106b84000400be00f5ef07000002be00048fbe0043
:106b940018c0b30002f82f00f37724001e00be00d3
:106ba40094f0070000027800e00f52000100350065
:106bb4000044eb0051512a000840780095ff07007b
:106bc4001e00be0089fd070000027800240798001b
:106bd4002e029000040078004f04be000080fa00ea
:106be400000006000e00fa00889fbe0040079800cf
:106bf400510798006207980084dc260045c62400eb
:106c0400048fbe004e009000de0090009ef007004e
:106c14000002be001e01be000400be0064f10700b5
:106c24000002be000404be006e02900005002000b5
:106c34000400be0094f007000002be000401be0080
:106c44000800be00c5ef07000002be00024022009b
:106c5400439724000400be00c0ef07000002be00fa
:106c6400048fbe001e00be003afd07000002be00f5
:106c740024079800350798002e029000be02900069
:106c84000400be004f04be000080fa0000000600ad
:106c94000e00fa0040079800510798006207980018
:106ca4004e009000de00900077f007000002be0066
:106cb400048fbe006e029000050020000400be0098
:106cc40071f007000002be001e01be000400be00f9
:106cd40037f107000002be0082dc260043c6240010
:106ce4000400be009def07000002be000200200069
:106cf400a34724000400be002df107000002be00db
:106d0400048fbe001e00be0012fd07000002be007c
:106d140024079800350798002e029000be029000c8
:106d24000400be000080fa00000006000e00fa0015
:106d34004007980051079800620798004e009000a1
:106d4400de00900050f007000002be00048fbe0079
:106d54006e029000050020000400be004af0070007
:106d64000002be001e01be000400be0010f10700b8
:106d74000002be0082dc260043c624000400be00dc
:106d840076ef07000002be00024022004397240071
:106d94000400be0006f107000002be00048fbe001e
:106da4001e00be00ebfc07000002be002407980092
:106db400350798002e029000be0290000400be0029
:106dc4000080fa00000006000e00fa004007980058
:106dd40051079800620798004e009000de00900072
:106de40029f007000002be00048fbe006e0290006e
:106df400050020000400be0023f007000002be00ce
:106e04001e01be000400be00e9f007000002be003f
:106e140082dc260043c624000400be004fef0700b6
:106e24000002be0082b22600e3e624000400be0095
:106e3400dff007000002be00048fbe001e00be008b
:106e4400c4fc07000002be00240798003507980020
:106e54002e029000be0290000400be000080fa00e2
:106e6400000006000a00fa00004f980014002000f9
:106e7400040f780084002000140798000404200004
:106e840024079800041020003407980014c0b300ad
:106e94008e4a9000e3cf5200010036000042eb001e
:106ea40061562a0004407800dafe07000e4a90007a
:106eb4000482fb00040242006e027a00040078009f
:106ec4000080fa00000006000c00fa002007980079
:106ed4003107980042079800530798005e0290001b
:106ee400e00f520006003a00be0290002e0290000d
:106ef4000482520005002000048fbe001d003700ec
:106f0400ce0290002e029000048252000402e80097
:106f140005002000048fbe005e02900005002000e2
:106f240061035200e0835a004e02900005002000e5
:106f340061024200e0824a0084b8b90086a9b9001f
:106f44008200780001004000060378000402780003
:106f54000432b80005004000800278001e0f420091
:106f64005e974a003e029000050020001e0f42007a
:106f74005e974a001e02be000400be000080fa00b4
:106f8400000006000800fa00100798002107980086
:106f940032079800ae0290001e029000848f5200c7
:106fa40004003900ae0290001e029000048f5200cb
:106fb40006003700be0290001e02900004825200b8
:106fc400040fe8002e0290001e0f42001e027800fb
:106fd400040078000080fa00000006000400fa00b3
:106fe400004f7800110798001e427800e04f5200cd
:106ff40002003a001e00900018fb07000080fa000f
:10700400000006000000fa00a60007000040280067
:107014003100200077fe07000440280035002000de
:107024000001eb00007028003139200094fc0700b7
:1070340000027800441188002062a9000080fa0050
:10704400000006000000fa0056d0800067d08000df
:107054000082eb008082eb00840f5300858f5b007d
:107064001200320054d0800065d0800061024200da
:10707400e0824a0054d0880065d0880056d0800051
:1070840067d08000f4d3200035002000840f530023
:10709400858f5b0007003600daff0700405b2a009b
:1070a400ddfc0700b4fa0700feff37000000000013
:1070b40001003700000000000080fa000000060014
:1070c4000400fa002047980014c0b300ae429000b8
:1070d400e7cf5200010036000042eb00d1612a00e4
:1070e40004407800bdff0700ff3ffc00143a800015
:1070f400040f78002e429000674262000482fb0075
:10710400670262004822dd001e037800f58f2f001d
:107114008502630005027200040f78001e027800e5
:107124000400a000040f78000e02e8001442780066
:107134000483fb0084072000a50920003774200085
:10714400844b7800854b7800864b78000e027800db
:10715400144278000483fb006404200075052000b9
:1071640027742000844b7800854b7800864b780088
:107174000000fc006022b80054d0880065d088006c
:1071840001003700afff0700143a8000610262007b
:10719400e00f5200fbff3a002e429000e14f5200f4
:1071a400060032002e429000e34f52000c003a00d9
:1071b40003003700a3ff07000100370000000000b0
:1071c400153a80000402200004826200e00f52009d
:1071d400f8ff3200030037009aff07000100370070
:1071e40000000000143a80004c22de006742620076
:1071f4008482fb002e4290000482fb00848f5200a4
:10720400f5ff3a000080fa00000006000000fa00d2
:107214000080fa00000006000000fa000040eb00c5
:10722400a7ff0700453a800004fc2f000482620097
:10723400443a88000080fa00000006000000fa00ca
:107244000040eb009eff0700453a800004fc2f003d
:1072540004826200443a8800253a800004fe2f002c
:10726400048262007400b300243a8800353a800036
:1072740004e02f0084826200140c200005027200d6
:10728400343a8800243a80000460a1000470a1000c
:10729400243a880010c0b30089ff07000080fa0078
:1072a400000006000000fa000040eb0084ff070025
:1072b400453a800004fc2f0004826200443a8800ae
:1072c400253a800004fe2f0004826200243a8800dc
:1072d400353a800004e02f0084826200f403200029
:1072e40005027200343a8800243a80000460a10048
:1072f4000470a100243a880010c0b30070ff070096
:107304000080fa00000006000000fa000040eb00d4
:107314006bff0700453a800004fc2f0004826200e2
:10732400443a8800253a800004fe2f00048262005b
:10733400243a8800353a800004e02f0084826200f9
:10734400a404200005027200343a8800243a800024
:107354000460a1000470a100243a880010c0b300a6
:1073640057ff07000080fa00000006000000fa0042
:107374000040eb0052ff0700253a800004fe2f0076
:1073840004826200243a8800353a800004e02f0029
:10739400848262006402200005027200343a88008c
:1073a400243a80000460a1000470a100243a8800fb
:1073b40030c0b30042ff07000080fa00000006005e
:1073c4000000fa0020c0b3003dff07000080fa006f
:1073d400000006000400fa00004f7800110798002e
:1073e4001e427800e04f520002003a001e00900056
:1073f4001afa07000080fa00000006000400fa00f0
:10740400008fbe001e00be004e0207001e02be001a
:10741400c42bde00cc28dd004423de00068370008c
:1074240014d0800025d080000602420087824a00e2
:1074340014d0880025d088000080fa0000000600df
:107444000200fa001411800068026200e00f52008a
:107454000400320034118000044f7800802a2a008e
:10746400fef907001411800064026200e00f52006c
:107474000400320034118000044f7800c02b2a002d
:10748400f6f907001411800062026200e00f520056
:10749400030032002222a900102d2a00eff9070070
:1074a4000080fa00000006000200fa00004f780095
:1074b40001003700b0f907001511800004202000f6
:1074c40004826200e00f5200faff3a009e42780004
:1074d4000582fb00241188000080fa0000000600e9
:1074e4000000fa0014118000044278006142620036
:1074f400044078000080fa00000006000000fa0052
:10750400010037009cf90700141180006102620039
:10751400e00f5200fbff3200c9ff07003411800066
:1075240004427800044078000080fa00000006005d
:107534000400fa00008fbe00114ea800174ea900e7
:107544001b4ea9001d4ea9002536800004f82f000b
:1075540084826200a402200005027200243688009e
:10756400116ea900176ea9001b6ea9001d6ea9005b
:1075740045348000f40f2c00848262000410200043
:1075840005027200443488000002eb0004118800f4
:107594001e02be000001eb0020722b0011392000f6
:1075a40037fb07000002780044118800040028001b
:1075b40004118800044021001411880010c0b30095
:1075c400743e2000050020001e03be00840f5300fb
:1075d400858f5b0001003e000040eb00612e2a0015
:1075e4007cff0700909e2e000100200083ff07000f
:1075f4002222a900010037003411800014118000f8
:1076040068026200e00f5200fbff3a001411800090
:1076140064026200e00f5200f7ff3a000080fa00b3
:10762400000006000200fa00941180006802620063
:10763400e00f520004003200b4118000044f7800bf
:10764400b0332a0085f907009411800064026200b7
:10765400e00f520004003200b4118000044f78009f
:10766400f0342a007df90700941180006202620060
:10767400e00f5200030032003222a90040362a00f3
:1076840076f907000080fa00000006000200fa0004
:10769400004f78000100370037f90700951180008a
:1076a4000420200004826200e00f5200faff3a0036
:1076b4009e4278000582fb00a41188000080fa0035
:1076c400000006000000fa009411800004427800d3
:1076d40061426200044078000080fa000000060065
:1076e4000000fa000100370023f90700941180001c
:1076f40061026200e00f5200fbff3200c9ff070085
:10770400b411800004427800044078000080fa003c
:10771400000006000400fa00008fbe000002eb0027
:10772400841188001e02be000001eb0020722b00b1
:1077340011392000d2fa070000027800c411880031
:10774400040028008411880004402100941188005a
:1077540010c0b300743e2000050020001e03be00cc
:10776400840f5300858f5b0001003e000040eb0056
:1077740091372a0017ff0700909e2e000100200079
:107784001eff07003222a90001003700b411800057
:107794009411800068026200e00f5200fbff3a007f
:1077a4009411800064026200e00f5200f7ff3a0077
:1077b4000080fa00000006000000fa000100370013
:1077c400edf807000419800061026200e00f520026
:1077d400fbff32000080fa00000006000200fa00fd
:1077e400c4722a00a4d08800043a80004522de0036
:1077f40061426200044f780040a7a8002023a8003b
:1078040000000000ecff07009e42780061c26200a5
:107814000482fb00610262004522dd00063a80001a
:10782400f5fd2f008502630005027200043a88000a
:107834000002eb00a4d08800041880000400780043
:107844000080fa00000006000400fa00000f78002f
:1078540021479800324798002e429000ff4f520073
:1078640002003600f4c1b3002447980021e3a900c4
:10787400040e2000041988003e429000e04f52009c
:10788400020032002143a800010037002143a9006f
:107894002e4290000482fb004822dd00840278001e
:1078a400040028000502720024198800040028003e
:1078b400141988001e0278004419880021e3a800e6
:1078c4000080fa00000006000800fa002007980073
:1078d40061479800724798000042eb0014479800f3
:1078e40014002000140798000042eb00044f7800b5
:1078f4000c003700ae0290001e0290000482620069
:10790400e00f5200030032001e4290000442e800df
:10791400144798001e0290000402420014079800c5
:107924001e4fe8001e427800ef4f5200f1ff360070
