:020000040000fa
:080000000013040000000000e1
:020000040000fa
:1000080002100000061000000a1000000e10000088
:1000180012100000161000001a1000001e10000038
:1000280022100000261000002a1000002e100000e8
:1000380032100000361000003a1000003e10000098
:1000480042100000461000004a1000004e10000048
:1000580052100000561000005a1000005e100000f8
:1000680062100000661000006a1000006e100000a8
:1000780072100000761000007a1000007e10000058
:1000880082100000861000008a1000008e10000008
:1000980092100000961000009a1000009e100000b8
:1000a800a2100000a6100000aa100000ae10000068
:1000b800b2100000b6100000ba100000be10000018
:1000c800c2100000c6100000ca100000ce100000c8
:1000d800d2100000d6100000da100000de10000078
:1000e800e2100000e6100000ea100000ee10000028
:1000f800f2100000f6100000fa100000fe100000d8
:1001080002110000061100000a1100000e11000083
:1001180012110000161100001a1100001e11000033
:1001280022110000261100002a1100002e110000e3
:1001380032110000361100003a1100003e11000093
:1001480042110000461100004a1100004e11000043
:1001580052110000561100005a1100005e110000f3
:1001680062110000661100006a1100006e110000a3
:1001780072110000761100007a1100007e11000053
:1001880082110000861100008a1100008e11000003
:1001980092110000961100009a1100009e110000b3
:1001a800a2110000a6110000aa110000ae11000063
:1001b800b2110000b6110000ba110000be11000013
:1001c800c2110000c6110000ca110000ce110000c3
:1001d800d2110000d6110000da110000de11000073
:1001e800e2110000e6110000ea110000ee11000023
:1001f800f2110000f6110000fa110000fe110000d3
:1002080002120000061200000a1200000e1200007e
:1002180012120000161200001a1200001e1200002e
:1002280022120000261200002a1200002e120000de
:1002380032120000361200003a1200003e1200008e
:1002480042120000461200004a1200004e1200003e
:1002580052120000561200005a1200005e120000ee
:1002680062120000661200006a1200006e1200009e
:0c02780072120000761200007a120000e2
:020000040000fa
:1020000002000000362f040000000000362f0400fc
:1020100000000000362f040000000000362f0400ee
:1020200000000000362f040000000000362f0400de
:1020300000000000362f040000000000362f0400ce
:1020400000000000362f040000000000362f0400be
:1020500000000000362f040000000000362f0400ae
:1020600000000000362f040000000000362f04009e
:1020700000000000362f040000000000a63d040010
:1020800000000000362f040000000000362f04007e
:1020900000000000362f040000000000362f04006e
:1020a00000000000362f040000000000362f04005e
:1020b00000000000362f040000000000362f04004e
:1020c00000000000362f040000000000362f04003e
:1020d00000000000362f040000000000362f04002e
:1020e00000000000362f040000000000362f04001e
:1020f00000000000362f040000000000362f04000e
:1021000000000000362f040000000000362f0400fd
:1021100000000000362f040000000000362f0400ed
:1021200000000000362f040000000000362f0400dd
:1021300000000000362f040000000000362f0400cd
:1021400000000000362f040000000000362f0400bd
:1021500000000000362f040000000000362f0400ad
:1021600000000000362f040000000000362f04009d
:1021700000000000362f040000000000362f04008d
:1021800000000000362f040000000000362f04007d
:1021900000000000362f040000000000362f04006d
:1021a00000000000362f040000000000362f04005d
:1021b00000000000362f040000000000362f04004d
:1021c00000000000362f040000000000362f04003d
:1021d00000000000362f040000000000362f04002d
:1021e00000000000362f040000000000362f04001d
:1021f00000000000362f040000000000362f04000d
:1022000000000000362f040000000000362f0400fc
:1022100000000000362f040000000000362f0400ec
:1022200000000000362f040000000000362f0400dc
:1022300000000000362f040000000000362f0400cc
:1022400000000000362f040000000000362f0400bc
:1022500000000000362f040000000000362f0400ac
:1022600000000000362f040000000000362f04009c
:1022700000000000362f040000000000362f04008c
:1022800000000000362f040000000000362f04007c
:1022900000000000362f040000000000362f04006c
:1022a00000000000362f040000000000362f04005c
:1022b00000000000362f040000000000362f04004c
:1022c00000000000362f040000000000362f04003c
:1022d00000000000362f040000000000362f04002c
:1022e00000000000362f040000000000362f04001c
:1022f00000000000362f040000000000362f04000c
:1023000000000000362f040000000000362f0400fb
:1023100000000000362f040000000000362f0400eb
:1023200000000000362f040000000000362f0400db
:1023300000000000362f040000000000362f0400cb
:1023400000000000362f040000000000362f0400bb
:1023500000000000362f040000000000362f0400ab
:1023600000000000362f040000000000362f04009b
:1023700000000000362f040000000000362f04008b
:1023800000000000362f040000000000362f04007b
:1023900000000000362f040000000000362f04006b
:1023a00000000000362f040000000000362f04005b
:1023b00000000000362f040000000000362f04004b
:1023c00000000000362f040000000000362f04003b
:1023d00000000000362f040000000000362f04002b
:1023e00000000000362f040000000000362f04001b
:1023f00000000000362f040000000000362f04000b
:1024000000000000362f040000000000362f0400fa
:1024100000000000362f040000000000362f0400ea
:1024200000000000362f040000000000362f0400da
:1024300000000000362f040000000000362f0400ca
:1024400000000000362f040000000000362f0400ba
:1024500000000000362f040000000000362f0400aa
:1024600000000000362f040000000000362f04009a
:1024700000000000362f040000000000362f04008a
:1024800000000000362f040000000000362f04007a
:1024900000000000362f040000000000362f04006a
:1024a00000000000362f040000000000362f04005a
:1024b00000000000362f040000000000362f04004a
:1024c00000000000362f040000000000362f04003a
:1024d00000000000362f040000000000362f04002a
:1024e00000000000362f040000000000362f04001a
:0c24f00000000000362f04000000000077
:020000040000fa
:102600008f9121000eff24000e01880000000000c1
:10261000000020000000e000020032000001200065
:10262000200288000c000700e05724000100200071
:102630000f000700000020000000e0000200320050
:102640000000020000000000403e02000000000008
:102650000040da000000fe00a09f20000000e00023
:1026600002003200002020009001880000000600d7
:10267000a1028800800078000000eb001a003700fb
:10268000e280400054a0b4009101ba00e280400012
:1026900054a0b4009102ba00e280400054a0b400fb
:1026a0000002eb00472bde00f507b200a601880010
:1026b000602ce10008003a000049eb000201e8004c
:1026c000020039003420ec0002f0a0008301e90090
:1026d000f9ff3e00040037006128e10001003200ec
:1026e0000082eb00040007001101ba000200e000c4
:1026f000e3ff3a000000060004d0a300e20f490007
:102700001c003900810278003549ba000201e80056
:10271000020039003420ec0002f0a0008301e9003f
:102720000f0032002549ba000201e800020039001a
:102730003420ec0002f0a0008301e9000800320020
:102740000400e0000600320015c9ba000201e800ea
:10275000020039003420ec0002f0a0008301e900ff
:102760008180e80054a0b4000300e000e2ff3a00da
:10277000000006009102ba00055978008301e900c3
:10278000f7ff3200c82ade00055978008301e9000e
:10279000f3ff32000400e000f1ff320011d9ba006b
:1027a000eeff37000a00fa00e20f500022003e0060
:1027b000b4c88000e10f52000600320087232000d9
:1027c000462320002423200005232000e08f53000f
:1027d00004003a0087222000462220002422200004
:1027e00005222000000028001500600003003a00c8
:1027f000800b780007002800958a730005402000b0
:102800009482620001003a0014a0a00082027800c5
:1028100006003700940378000710b200fdff320075
:10282000b103fb00070b78008502e900e08f52003e
:10283000f8ff3a0008003700340020001007980025
:1028400032079800040f7800210798000e007800e6
:10285000d10607003e019000020078000080fa00d7
:102860000000060003f0a200889fbe008a9fbe0001
:102870008c1f78001d010700240133006450e10023
:102880004f0032006420e1005200320003826c00ed
:1028900007003b000905d0000306d000820f54005a
:1028a0000c065d0002003900020032008901780048
:1028b000030678008582550004003d000003fd00fa
:1028c0008103fd008502ea008b854200840f7200bf
:1028d00002003b0060001000e08018006011b800aa
:1028e0000005eb007a28e1000a00390006007800b4
:1028f000c75ddd00f707b200878075002d00370047
:10290000828171000a017800610560008180d10038
:102910000080d3008502e900f9ff3b000604400077
:102920008784480002003b0060041400e0841c001f
:102930000988a300070032008a817100828171003a
:10294000610164008904d1000884d3008b05e8008c
:10295000170037000978a30013003a000b00e000cd
:10296000130034008b05e9000804440089844c00fe
:102970000a4474000978a3000d003a000b00e0003f
:10298000070034008b05e9000804440089844c00ea
:1029900001003a000b0020000978a300f7ff320085
:1029a0000001eb0002003700828171000a0178000b
:1029b000930007000cf0a70001f0a000dc00370036
:1029c0006420e10002003a00838f6c00dc003300d9
:1029d0000801be000200be00d50037000081eb00f8
:1029e0000e013700889fbe008a9fbe008c1f7800b2
:1029f000be000700c500330003866c006450e10090
:102a00002e0032006420e100330032006150e1000a
:102a10002f0032006120e100310032008585550031
:102a2000eb07b00009002000080420000500370073
:102a30000804440089844c000a0031000603430066
:102a400087834b000001530081815b00f8ff330056
:102a50000203be000800a0000804440089844c0062
:102a6000f6ff3900c639dd00830173000100320032
:102a7000130020008904d1000884d3000998a30022
:102a8000050032000800a7000300a0008904d1005f
:102a90000884d3008b05e8008904d1000884d300a2
:102aa0000001eb000281d2005500070001f0a100f7
:102ab0000cf0a70001f0a0009d0037006420e100a9
:102ac0009f0032000801be000200be00f7ff370081
:102ad0006120e1009a0032006000b800f3ff370087
:102ae0000000200001f82700f0ff3700140020004c
:102af0006a013700f4ff2f00680137000001be00b3
:102b0000650007000470a70003f0a1006509b1008b
:102b1000160032000d0035006828e100060035007f
:102b2000f0ff2f00f1ff27000300e00013003b003f
:102b300001002800000005000000400081804800de
:102b40008502e900fcff3a0008003700f88f4200d8
:102b500002003c008000eb00000005008100d10075
:102b60000080d3008502e800fcff3a000300e0008b
:102b700002003b0060001000e0801800000006002a
:102b80000001be00440007000470a70003f0a1008c
:102b900003f8a30013003a006509b10010003200e9
:102ba000090035006928e100020035000100280015
:102bb0000000050000004000818048008502e90017
:102bc000fcff3a0000000600f88f420005003500c7
:102bd0008100d1000080d3008502e800fcff3a00ac
:102be000000006008000eb00000005004f89de00b9
:102bf00082017800440137006011b80052013700ab
:102c000081002000618055000b003d000b0020007a
:102c100061fe2f000100e1001d003400828171007f
:102c2000610164008904d1000884d3000000e80039
:102c3000faff3a0071002000610064000300700098
:102c4000020060000900320061044400e0844c008e
:102c50000988a500050032008b05e8006808e1003e
:102c600002003a008904d1000884d300f20f20004a
:102c70000258e10005003d00c75ddd00f907b20024
:102c80008980750008007800000006000bf8270016
:102c90008b00780000000500c70ade00f107b200d3
:102ca000f50fb20008003200e1cf4200020032000e
:102cb0000170a00024000500810f700001003200a7
:102cc0000408050044000500810f700002003a006e
:102cd000140005008502e9000000400081c04800a2
:102ce000fcff3b000170a000240005000004be00b2
:102cf000e9ff07000003be000405be000200be009d
:102d0000e5ff0700844f7500000006000200be00ca
:102d10006450e100050036006420e1000200360046
:102d20000968a30001003a000800be000160a0008d
:102d30004f0678004f05be004f04be00000006009d
:102d4000f0ff2f00f1ff2700f9ff3700889fbe003a
:102d50008a9fbe008c1f7800e4ff0700ebff330062
:102d600003866c006450e100240032006420e1001e
:102d7000270032006150e100220032006120e100b2
:102d8000210032008b854200eb07b1000134b8000e
:102d9000003ab8000804420089844a00013ab800a9
:102da0000030b8008880400009014a000400330068
:102db0000000400081804800020149008b05e900c5
:102dc000c909dd00830170000100320013002000fa
:102dd000c814de004814dd004709de001200b2000e
:102de000c808de000884700085ff070001f0a1001c
:102df0000cf0a70001f0a000cdff37006120e1003a
:102e0000cfff32000801be000200be00f7ff37000e
:102e10006150e100fcff3a00c9ff3700889fbe0007
:102e20008a9fbe008c9fbe00820578000004be0011
:102e300099ff07000800be006420e1000700390088
:102e400002003a00f1ff2700f0ff2f000160a00010
:102e500012022000f2c08800550037006120e10016
:102e600003003a000b00a70001f8230050003700d0
:102e700001f0a10002002100936424001bff070061
:102e80000800be0004003500b2fd2000930c2400b1
:102e9000dc0007000004be000005eb000b00a600ec
:102ea0004f0dde0001f0a1000004be0032982f009b
:102eb00023ea2300a5ff07000001eb0003f0230035
:102ec0000b00a70003f8230067fe07000bff0700b5
:102ed0000000a7000a00a20044ff07000b00e0006a
:102ee000030032000200200003f023005dfe070013
:102ef00001f0a2000006be0002002000930424009e
:102f000092ff07000801be0057fe0700809fbe0029
:102f10000c00be0022a22a00d3a723008bff0700cb
:102f20004f01be0050fe07000004be0001f0a100ea
:102f30000200200003982300ecfe07000800be00fa
:102f4000190035000001be0080ff07000006be002a
:102f5000b2c52900e36223007cff070022222b0078
:102f6000f3942b0040fe07000c01be0077ff070022
:102f7000e273280083c023003bfe07000c01be0063
:102f800072ff070042aa2a00a3e22b0036fe0700c8
:102f90000c01be006dff07000801be006bff0700bb
:102fa0000801be0030fe07000a00a70001f0a200e1
:102fb0004f06be004f05be004f04be0000000600d5
:102fc0000001eb0095ff3700889fbe008a9fbe007e
:102fd0008c1f78000004be002fff07000478a300b8
:102fe00026003a006120e1002500320009f8a30024
:102ff00025003a006420e10021003200f507b1000d
:103000000508a30002003200000040008180480053
:103010006044b800031020000200200000004000bf
:10302000818048000805440089854c000a0541005c
:103030008b8549000a0550008b855800030033003a
:103040000a00be0002047400838474008301d1006e
:103050000281d300830f7100f0ff3a008904d10090
:103060000884d3006001490082017800c1adde0010
:10307000fb07b000e2fe07002dff37000960a0004b
:103080000800be002aff370012022000f2c08800ac
:10309000f0ff2f00f1ff270025ff3700889fbe00bb
:1030a0008a9fbe00841f780010ff07004f00780041
:1030b00011003300f0ff2f00838f6c0006003b00ef
:1030c000040565000a00a7000800370009f0a60003
:1030d0001000200008003700820f5400838f5c002e
:1030e000030039001000200001003e000000200015
:1030f00009f0a7000000ea004f05be004f04be0023
:103100000000e00000000600881f7800030478003b
:103110000300e00007003d0060001000e0801800a0
:1031200060011900e081190002003b0001f02d0050
:10313000030037000400070008f0a70001f0a0001a
:103140004f04780000000600889fbe008a9fbe00e2
:1031500000827000040271000482710026003200b7
:103160000004be000200be006011b8006b09200020
:10317000950220000182cf000a0039000541b1000c
:103180000082cf00070039000541b1000982cf005d
:10319000040039000541b1000882cf000100390068
:1031a0000541b10005425200120032000a003b0006
:1031b00082817100610164008100d1000080d30030
:1031c0008984d3000884d3008b05e8000442e8001a
:1031d000f7ff3a00070037000804440089844c00d8
:1031e00000004800818048008b05e9000442e900a6
:1031f000f9ff3a0082fe07004f05be004f04be00f3
:10320000000006000400200000003700889fbe0078
:103210008a9fbe008c1f78004f26dd00b3fe07009a
:10322000bafe33006120e100430032006250e10049
:1032300041003e003e0039006420e1003c003200c5
:10324000058255000f003b000402e80038003a00f8
:10325000800f5300818f5b00350034000800be00f2
:1032600003f0a10001f0a60003f0a0000cf0a700fd
:103270007dfd0700aefe37000603430087834b0049
:103280000c4646000005530081855b0002003300b8
:103290000a03be000c00a0000402e900f6ff3b0098
:1032a000850578000602430087824b0004003a003f
:1032b0006000b80009f0a70001f0a0009cfe3700f4
:1032c0000002520081825a000704e000040033002b
:1032d0000603430087834b008b05e900faff3700a4
:1032e000090578000604be000203be006011b800a4
:1032f00043fe0700e00f5200e08f5a000700350040
:1033000002003c000c08a300040032000601be00cd
:1033100003f0a0000cf0a70053fd07000a85680029
:1033200001f0a1000af0a70001f0a00080fe370024
:103330000800be007efe3700100220000cf0a60040
:10334000f0c088007efe3700608f21000000fa0088
:1033500068015700ceb89700020007000080fa000d
:10336000000006003a00fa00889fbe00011798008e
:103370008a9fbe00421798008c9fbe00800678008e
:103380000000eb0060179800720337008e10900069
:1033900054c2b3008100e80001179800844f500028
:1033a00006003a00010278000006eb0001c3b300fa
:1033b00000c2b300b7c2b300100037003d02900056
:1033c0000404b200040032001d027800004a7800b4
:1033d000840ee800050037000000fb008d00780037
:1033e00067030700e10f40005a0332006e1190009e
:1033f0000201e80062179800560337008402780043
:10340000d3c2b30034437800834f53000900320025
:1034100005003c00804f530008003200874f5300e6
:103420000c003a0007003700814f530009003a00b2
:10343000060037000c30a000f0ff37000c00a000a1
:10344000eeff37000c10a000ecff37000c20a000ae
:10345000eaff370062026600010032000c00a100a2
:1034600068026600010032000c20a1000602fb0089
:103470000403b100e90f52000c003e000503780080
:103480000002eb00b602fb00ea22b9000503b1001e
:103490009603fb00048242000703b1008602780015
:1034a000e98f5300f7ff3600080037000002eb00f9
:1034b000a7c2b300874f530004003a004e13900098
:1034c0008502e80046027800461798008003eb006a
:1034d000e6c2b30057179800954f13000c003a004e
:1034e0000ce0a00064435300d54f130003003200ea
:1034f0000503780007007800090037004e1490009b
:103500008502e800c8047800481798005917980009
:103510000503780009003700ea00b9000080430085
:1035200086027800b603fb000703b100e98f530061
:10353000f9ff360050179800f5ff3700b6427800c3
:10354000cbc6b300061798008bcf5200250032007f
:103550000f003c0036c6b30086cf5200a3003200f5
:1035600004003c00e0cf5200ff0232006b435300e6
:103570000f00370046c6b30086cf52001700320056
:103580006543430086cf5200b6003a00130037006f
:1035900036c7b30086cf52002000320007003c003f
:1035a0006443530086cf5200150032000643e80002
:1035b00086cf5200ab003a001400370056c7b30064
:1035c00086cf5200ac0032006343430086cf5200e6
:1035d000a4003a00054f78000e003700054f780030
:1035e000a7003700f003660005012000010032004b
:1035f000050028008c82720005067800cfff370096
:10360000054f78000c60a0009d003700054f780042
:103610000c50a0000c70a000990037004e109000d4
:10362000054f7800c0027800401798007517980081
:10363000e08f520002003a002284210072179800a5
:103640007e1390008002eb00010037008502e80045
:10365000850343008041eb0097cf1100fbff3a0048
:10366000051f9800de129000e08f52000500320026
:103670000e1b9000868f52000200310085037800f7
:10368000071f98008e1a90000004eb00850f52006f
:1036900001003600050452006806660009c2b30046
:1036a000110032002d0037003d0290000404b200ea
:1036b000040032001d027800094a7800840ee800f8
:1036c000050037008d00780000022000ac020700e2
:1036d000e10f4000030032006e1590000a05e8007b
:1036e0006a1798000804e900e00f5400eeff3a0062
:1036f0000084eb0019003700bd0290000504b20001
:1037000009003200880278009d0378003543780074
:10371000864b780005047800870ee800e04f5300e0
:103720000a003a0012003700880278008d00780005
:103730003500fb00441f9800050478009002070044
:103740004e1a9000e10f4000090032006e10900008
:103750000000e800601798000500370008027800b4
:103760007e1490008e1c90001e1d9000ae1d9000d7
:10377000890278008504e900e08f5200deff3a00fc
:1037800078179800091f98001a1f98002b1f98009f
:1037900004047800e00f56006e02320009c2b30044
:1037a0006e1690000e0037003d0290000404b20037
:1037b000040032001d027800094a7800840ee800f7
:1037c000050037008d007800000220006c02070021
:1037d000e10f4000010032000c06e8000804e90097
:1037e000e00f5400f0ff3a0059023700ce1090006d
:1037f000700366004104780041179800cfc4de00d2
:10380000090578008a0578000800be000a01be009c
:103810004800de00c80add0000807200004f78001a
:10382000e00f530009003200e04f50000700320063
:10383000e14f4000050032002600200010479800ac
:1038400028479800061f9800030037001700200043
:10385000071f9800184798000e04e8007817980092
:1038600080ff37001a002000054f78007e1798006f
:103870000a1f98007bff3700054f78000c0cb3003f
:103880008c027800050cb2003b003a00e00f5600b5
:1038900005003d00ce1290004501be004500be006f
:1038a000451798000f003700f00266001200320042
:1038b0004e1490004803be00460798005707980032
:1038c0004817980098029000cfaade00650798007c
:1038d000750798004e009000de0090006e01900089
:1038e000fe01900070179800011f9800121f9800a9
:1038f000231f98000b003700ce109000c102780003
:1039000005047800cfc4de00090578008a05780038
:103910004117980078179800091f98001a1f9800ff
:103920002b1f98007e1090008e1890001e1990009a
:10393000ae199000e00f5000e08f5800e00f5900e2
:10394000e08f590032003d006000b8006011b800ff
:103950007e1490008e1c90001e1d9000ae1d9000e5
:103960003c00b30008045000898458000a0559003f
:103970008b85590022003700e00f560005003d00fe
:10398000ce1290004501be004500be0045179800cc
:103990000f003700f0026600120032004e14900053
:1039a0008004eb004803be000005eb00460f9800c2
:1039b000570f9800690f98007a0f98004e089000f2
:1039c000de0890006e099000fe09900048179800ec
:1039d00070179800011f9800121f9800231f98006d
:1039e0000b003700ce109000c102780041179800fc
:1039f00005047800090020000a0020000b002000c8
:103a000078179800091f98001a1f98002b1f98001c
:103a1000de149000e08f54000d003a001a002000e0
:103a20007e1090008e1890001e199000ae19900024
:103a30005a179800e00f5000e08f5800e00f59002f
:103a4000e08f5900020032008000eb00511798000f
:103a50000c01780005042000020cb2003217980017
:103a6000850f51003400320003003c00e00f51008c
:103a7000080032004800370005082000be11900001
:103a8000858f510014003200050c2000858f5100f5
:103a900041003a002685210015c0b3003600be0063
:103aa0003601be007e1490008e1c90001e1d9000fa
:103ab000ae1d90000040e10001c8e10002d0e1002d
:103ac00003d8e100330039008542e800f4cf52000a
:103ad000f2ff3a002f00370015c0b30000012000ac
:103ae000010020006011b8007e1490008e1c900030
:103af0001e1d9000ae1d90000040e10001c8e100d5
:103b000002d0e10003d8e100220039004900200082
:103b10000000d0008180d2000281d2008381d200d7
:103b20008904e900faff3a008542e800f0cf52002c
:103b3000edff3a001700370015c0b30080002000e9
:103b4000010020006011b8007e1490008e1c9000cf
:103b50001e1d9000ae1d90000040e10001c8e10074
:103b600002d0e10003d8e1000a003900390020004a
:103b70000000d0008180d2000281d2008381d20077
:103b80008904e900faff3a008542e800f5cf5200c7
:103b9000edff3a00054f78009e02fb005e15900095
:103ba0008a8f520002003d000a4f7800040037005f
:103bb000de159000858f550001003d0055179800d7
:103bc000e00f520003003200e30266000100320001
:103bd0000402e900050024008502660006003200a8
:103be0005e109000800f520002003400000252006c
:103bf000010037000002eb008000eb009e02fb009a
:103c000021179800850f52000200340085025200ef
:103c1000251798006402660045003200e202660043
:103c200061026600e08f520017003200bd02900072
:103c30000504b200080032009d027800b6c2b3004d
:103c4000e00f52000100320006c3e800864a780007
:103c5000850ee80008003700b0022000e00f520097
:103c6000010032000080e8008d0078004401070068
:103c7000e10f4000160032006e1190000201e800d2
:103c80006217980012003700e00f52001000320057
:103c90003d0290000404b200050032001d027800cd
:103ca00005c2b300054a7800840ee800050037001d
:103cb0008d0078000002200031010700e10f400074
:103cc00003003200ee1190008301e80063179800b2
:103cd0002e129000e00f52005b00320008c3b300c8
:103ce000840478003d0290000404b2000400320015
:103cf0001d027800084a7800840ee80005003700ad
:103d00008d007800000320001d010700e10f400036
:103d100003003200ee1290008502e800651798005b
:103d20008904e900efff3a002917980046003700a0
:103d30002e139000e00f5300160032006802660058
:103d400014003a0008c2b300860478003d029000d7
:103d50000404b200040032001d027800084a780012
:103d6000840ee800050037008d0078000002200076
:103d700003010700e10f400003003200ee13900042
:103d80008703e800671798008904e900efff3a000d
:103d900029179800e202660061026600e08f520077
:103da00017003200bd0290000504b2000800320086
:103db0009d027800b6c2b300e00f5200010032004d
:103dc00006c3e800864a7800850ee8000800370040
:103dd000b0022000e00f5200010032000080e80035
:103de0008d007800e6000700e10f40001600320069
:103df0006e1490000804e80068179800120037005d
:103e0000e00f5200100032003d0290000404b200a6
:103e1000050032001d02780005c2b300054a780093
:103e2000840ee800050037008d00780000022000b5
:103e3000d3000700e10f400003003200ee149000b1
:103e40008904e800691798005e159000a484210099
:103e50008a02e900f0056600c32add000c00780044
:103e6000048242000002b200141798003b07980039
:103e7000200798009c003700de1090003e11900053
:103e80008100e9000304200051179800830f5100be
:103e90006f00320003003c00e00f510008003200c8
:103ea0007c00370004082000be129000848f52006e
:103eb00051003200040c2000848f520075003a003b
:103ec000e00f56001b003d001e1390007e10900076
:103ed0008e1890001e199000ae1990003604be0096
:103ee0002605be000802be000a03be00e30107006b
:103ef0000802be000a03be00004f78000000fb006d
:103f0000cf80de0001017800820178004c020700ba
:103f10007e1490008e1c90001e1d9000ae1d90001f
:103f20000004540081845c0002055d0083855d000f
:103f300020003700be049000e08f540022003200c1
:103f40001e1090007e1290008e1a90003004be0069
:103f50002005be00441f98000400be000801be00fa
:103f6000351f9800100107000801be00004f7800bf
:103f70000000fb00cf80de001b0107004e1a9000fe
:103f8000be1a90000001520081815a000002eb002d
:103f9000020f9800130f9800340f98008001eb0077
:103fa000230f98000e0c90009e0c90002e0d900098
:103fb000be0d900078179800091f98001a1f9800ee
:103fc0002b1f9800090037009e1490007e1590006a
:103fd00019027800110009000485d800a40020000f
:103fe000110009000480d800014f78000bc3b30012
:103ff0001ecf450027003700148321002e009000bb
:10400000e00f50000100320004822100de10900019
:10401000c20add007e1090008e1890001e199000dc
:10402000ae1990008502e900050033008301d1003c
:104030000281d3008180d3000080d300f9ff3700d4
:10404000ef02600005024200144f780011003700b3
:104050005e1190007e1490008e1c90001e1d90003a
:10406000ae1d9000e312b90001c3b3000400780054
:104070000000e900050033008b05d1000a85d3005c
:104080008984d3000884d300f9ff370067426400b5
:10409000014f42003d0290000404b20007003200cc
:1040a0009d0278001e427800844a7800850ee80060
:1040b000e04f520006003a00080037001e00fb00e7
:1040c0008d0078002e000700e10f40000300320051
:1040d0006e1190000201e800621798009e11900096
:1040e000e8815100131798005e129000e00f520013
:1040f00061ff3a006806660016003200ae129000ba
:10410000e08f5200130034006e16900008c2b30016
:10411000850478003d0290000404b20004003200df
:104120001d027800084a7800840ee8000500370078
:104130008d0078000002200011000700e10f400010
:10414000010032000c06e8008904e900f1ff3a00a2
:104150006c1798000e13900016407800004f7800fe
:10416000e04f500089fc3a004f06be006e109000f0
:104170004f05be004f04be000080fa00000006009c
:104180000000fa00889fbe00010478008084eb00e4
:1041900038029000e20262003b0032000403780023
:1041a000980290000620b20002003a00e08f520010
:1041b00035003a000490a000800478003404980090
:1041c000f90fb200e08f520002003a00a8029000fe
:1041d000050c7800ea8f540005003a000408b2008c
:1041e00003003a0088007800d0002000e4ff0700b8
:1041f00018029000d8029000850f52000b00320088
:104200000402e80015c0b3001404980018027800f6
:10421000094a7800040ce80004912100054a78005e
:10422000ea8f540018003a00050037000940780072
:10423000880078001800070080047800120037001a
:10424000380290000410b2000f00320018019000f4
:10425000a80090004800900052f907001802900052
:10426000840f500004003200380290000403b300b1
:10427000340498008084eb000002eb0014049800e2
:1042800028029000040c7800090078004f04be005a
:104290000080fa00000006000200fa00889fbe00bd
:1042a00001047800004f7800380290008402780002
:1042b0000504b200020032000000fb0033003700aa
:1042c000e202620005003a000403b30015049800fe
:1042d000340498000080eb002c003700d8049000d4
:1042e000e08f540006003a00120020008e00780093
:1042f000480090002bf907001904980022003700ad
:10430000a8029000e08f520008003a003591210089
:104310000430a00025049800050c780034049800af
:1043200025002000550498001504980018019000fd
:10433000a8009000480090001af907002802900099
:104340008082eb00150498001e4a7800040ce800f7
:10435000a4c0b3009e4f12000b003a003802900038
:104360000410b2000800320018019000a80090006c
:10437000480090000bf907000002eb0014049800bd
:1043800028029000040c78001e00fb004f04be00c1
:104390000080fa00000006000000fa0000c0da0009
:1043a0000080fa00000006006022b800060220002b
:1043b0000000d0008180d2000482d2008582d20029
:1043c0000000a0000202520083825a000300310064
:1043d0000202420083824a000000a1000603e900b5
:1043e000f3ff3a0000000600020ab900001bb90002
:1043f0000200b80081004200810043000000060076
:104400000000fa00889fbe008a9fbe003004be00f4
:104410002005be000404440085844c0006054d00c0
:1044200087854d000898be000a90be000440e10058
:1044300005c8e10006d0e10007d8e1000200310024
:10444000680040001008e8004f05be004f04be00a1
:104450000080fa00000006001000fa00889fbe00ed
:104460008a9fbe000605be000404be003002be00e6
:104470002003be00049fbe000697be00110020006e
:104480000802520089825a000a035b008b835b009a
:10449000440798005507980066079800770798002a
:1044a0000498be000698be003e02be002e03be0069
:1044b0000820e10009a8e1000ab0e1000bb8e10022
:1044c000010039008000eb004f05be00108810008d
:1044d0004f04be000080fa00000006001400fa003d
:1044e000889fbe005b0007008a9fbe008c9fbe00b5
:1044f0000006eb004c0798003c0798002c0798003a
:104500001c0798000c0f78000605be000404be00ce
:104510000d0420004e039000be029000860343006d
:104520002e029000e00f530003003d002a00070018
:10453000b3ff07000200370027000700c6ff07008f
:10454000ce029000150f9800e08f52000900350050
:104550004500070014002000050020006033b8006b
:104560000000720081807200020173008381730079
:10457000380007000c06e8008d0f5600e5ff3a00f2
:104580001e0a9000e00f520004003d000802be0029
:104590000a03be000e00780099ff07004eba97008c
:1045a000e00f520006003a003e04be002e05be0099
:1045b00058079800690798007a0798000b0f980031
:1045c0004f06be00280007004f05be004f04be0086
:1045d0000080fa00000006004f2bde0022000700da
:1045e00086837300858242004f23de0047079800d0
:1045f0008682720004024200350798009e029000f5
:104600004f2bde00858242000602720024079800cc
:104610001e0278004f23de000402420086827200f0
:10462000150798004f18de00000f72000e000700fb
:104630000802be000a03be0000004000818048005e
:104640000201490083814900020007000e00780042
:104650000000060050079800610798007207980054
:10466000030f9800000006005e009000ee0090002e
:104670007e0190008e099000000006000000fa0004
:10468000881f780018002000881f780093ff07001b
:104690008f87e9004f0478000080fa0000000600d0
:1046a0000000fa00801feb008cff07008f87e900f5
:1046b0000080fa00000006000000fa00889fbe009b
:1046c0008a9fbe00e00f5000e08f5800e00f5900b5
:1046d000e08f59000c003d006044b8006055b80000
:1046e0000000540081805c0002015d0083815d0058
:1046f000180020001600070008003d001900070000
:104700000004eb00050037000004eb001000070078
:1047100002003d001300070018002000d7ff07002b
:10472000e00f5400060032006022b8006033b80089
:104730000000520081805a0002015b0083815b000f
:104740004f05be004f04be000080fa0000000600c6
:10475000e00f5200e08f5a00e00f5b00e08f5b003b
:10476000000006006044b8006055b8000402540020
:1047700085825c0006035d0087835d000000060003
:104780000000fa00889fbe008a9fbe008c1f780040
:10479000e00f5000e08f5800e00f5900e08f590003
:1047a0000d003d006044b8006055b8001c002000ba
:1047b0000000540081805c0002015d0083815d0087
:1047c0000820e10009a8e1000ab0e1000bb8e1000f
:1047d0000d003d00080037000006eb00e00f52001e
:1047e000e08f5a00e00f5b00e08f5b0006003d00a9
:1047f0006044b8006055b8000402540085825c0033
:1048000006035d0087835d00a5ff0700e00f5600eb
:10481000060032006022b8006033b8000000520089
:1048200081805a0002015b0083815b004f067800a3
:104830004f05be004f04be000080fa0000000600d5
:104840000000fa00889fbe008a9fbe008c1f78007f
:104850000006eb00e00f5000e08f5800e00f590019
:10486000e08f590007003d006044b8006055b80073
:104870001c0020000000540081805c0002015d00eb
:1048800083815d00e00f5200e08f5a00e00f5b0073
:10489000e08f5b0007003d006044b8006055b80041
:1048a0000c00a2000402540085825c0006035d0037
:1048b00087835d000d000700e00f56000600320000
:1048c0006022b8006033b8000000520081805a00b6
:1048d00002015b0083815b004f0678004f05be003c
:1048e0004f04be000080fa0000000600889fbe0052
:1048f0008a9fbe008c9fbe000404b8000506b80065
:104900008904460060854e000606b8000a05460088
:10491000e0854e000706b8008b054600040eb8007f
:10492000890446000a854e00e0854d00050eb8005a
:104930000a0546008b854e00060eb8008b05460022
:104940000416b8000a0546008b854e000516b8000f
:104950008b054600041eb8008b0546000800be000b
:104960000a01be004f06be004f05be004f04be0048
:04497000000006003d
:020000040000fa
:10497400556e0000686100006e6400006c65000004
:1049840064200000696e000074650000727200000b
:1049940075700000742c000020000000756e00008b
:1049a4006b6e00006f7700006e00000064730000ff
:1049b40050490000433300003345000050310000eb
:1049c400323800004750000035300000320000004b
:1049d4004133000000440000657600006963000074
:1049e4006520000049440000203d00002000000034
:1049f40020280000002900002c200000726500001f
:104a040076690000736900006f6e000020000000ea
:104a1400290a0000000a00000a2a00002a2a0000cd
:104a24002a2a00002a2a00002a2a00002a2a000032
:104a34002a2a00002a2a00002a2a00002a2a000022
:104a44002a2a00002a2a00002a2a00002a2a000012
:104a54002a2a00002a2a00002a2a00002a2a000002
:104a64002a2a00002a2a00002a2a00002a2a0000f2
:104a74002a2a00002a2a00002a2a00002a2a0000e2
:104a84002a2a00002a0a00002a20000057410000b8
:104a9400524e0000494e0000472000002d20000027
:104aa400746800006973000020700000726f0000d9
:104ab40067720000616d00002077000061730000e0
:104ac400206300006f6d0000706900006c650000d9
:104ad40064200000666f000072200000746800000b
:104ae40065200000777200006f6e000067200000f0
:104af400202a00000a2a00002063000068690000e0
:104b0400702e00002054000068690000732000002b
:104b1400707200006f670000726100006d20000079
:104b24006d61000079200000707200006f64000065
:104b34007563000065200000756e00006578000054
:104b4400706500006374000065640000206200006a
:104b540065680000766900006f7200002120000083
:104b64002a0a00002a20000045640000697400003d
:104b74002074000068650000206800006561000082
:104b84006465000072200000666900006c65000026
:104b940073200000746f000020700000726f00002a
:104ba40070650000726c00007920000064650000ec
:104bb400666900006e6500002074000068690000ea
:104bc400732000006368000069700000202a000060
:104bd4000a2a0000206100006e64000020740000b6
:104be4006f200000696e000073750000726500009c
:104bf400206300006f72000072650000637400009f
:104c0400206f00007065000072610000746900008c
:104c14006f6e00002e2000002020000020200000e5
:104c24002020000020200000202000002020000080
:104c34002020000020200000202000002a0a00007c
:104c44002a20000020200000202000002020000056
:104c54002020000020200000202000002020000050
:104c64002020000020200000202000002020000040
:104c74002020000020200000202000002020000030
:104c84002020000020200000202000002020000020
:104c94002020000020200000202000002020000010
:104ca4002020000020200000202a00000a2a000002
:104cb400204e00004f540000453a000020490000f7
:104cc400662000007468000069730000207700000b
:104cd40061730000206300006f6d000070690000c4
:104ce4006c65000064200000666f00007220000004
:104cf4007468000065200000636f00007272000099
:104d0400656300007420000063680000697000009f
:104d14002c200000202000002a0a00002a20000085
:104d2400616e0000642000006f6e00006c7900006a
:104d3400206f0000636300007572000073200000a0
:104d440061740000207000006f770000657200003d
:104d54002d6f00006e200000286e00006f740000ac
:104d64002064000075720000696e00006720000076
:104d7400612000004d4300004c5200002020000040
:104d840020200000202a00000a2a000020720000cf
:104d94006573000065740000292c00002076000073
:104da40065720000696600007920000074680000e4
:104db40061740000204100005644000044200000bb
:104dc400616e00006420000041560000535300004f
:104dd4002061000072650000206300006f6e000017
:104de4006e65000063740000656400002e200000fe
:104df400202000002a0a00002a2000004f6e000034
:104e04002074000068650000205000004943000041
:104e140032340000483300003247000050320000b2
:104e2400303200002c2000006e6f0000742000005f
:104e3400636f00006e6e000065630000746900001b
:104e44006e6700002041000056440000442000002a
:104e5400202000002020000020200000202000004e
:104e6400202a00000a2a000020700000726f00004f
:104e7400647500006365000073200000746800001e
:104e840069730000206d0000657300007361000009
:104e940067650000206f00006e6c00007920000040
:104ea40061740000207000006f77000065720000dc
:104eb4002d750000702e000020200000202000002e
:104ec40020200000202000002020000020200000de
:104ed4002a0a00002a2a00002a2a00002a2a00009e
:104ee4002a2a00002a2a00002a2a00002a2a00006e
:104ef4002a2a00002a2a00002a2a00002a2a00005e
:104f04002a2a00002a2a00002a2a00002a2a00004d
:104f14002a2a00002a2a00002a2a00002a2a00003d
:104f24002a2a00002a2a00002a2a00002a2a00002d
:104f34002a2a00002a2a00002a2a00002a2a00001d
:104f44000a00000046610000737400002052000053
:104f5400432000004f730000630a00000046000075
:104f6400617300007420000052430000204f0000d1
:104f7400736300002077000069740000682000005b
:104f8400504c00004c0a0000005000007269000000
:104f94006d61000072790000204f0000736300000f
:104fa40020280000585400002c2000004853000022
:104fb4002c20000045430000290a00000050000096
:104fc400726900006d61000072790000204f0000da
:104fd4007363000020280000585400002c200000b7
:104fe400485300002c200000454300002920000005
:104ff4007769000074680000205000004c4c0000e9
:105004000a00000053650000636f00006e64000036
:1050140061720000792000004f730000630a0000f1
:10502400004c00006f770000205000006f770000f4
:105034006572000020520000432000004f730000fe
:10504400630a000000460000617300007420000041
:1050540052430000204f0000736300002f31000012
:10506400360a00000046000061730000742000004e
:1050740052430000204f0000736300002f4e0000d5
:105084000a000000556e00006b6e00006f77000090
:105094006e2000006f730000636900006c6c0000f8
:1050a400617400006f7200002074000079700000c9
:1050b400652e0000000a00004465000076690000c7
:1050c4006365000020680000617300002062000036
:1050d400656500006e200000696e0000207300000a
:1050e4006c65000065700000206d00006f640000b6
:1050f400650a0000000a00004465000076690000ab
:1051040063650000206800006173000020620000f5
:10511400656500006e200000696e000020690000d3
:10512400646c0000652000006d6f00006465000081
:105134000a0000000a520000657300006574000054
:105144002063000061750000736500003a200000d0
:10515400005000006f770000657200002d6f0000a2
:105164006e2e00000a000000536f000066740000f9
:105174007761000072650000205200006573000032
:10518400657400002e0a00000057000061740000de
:1051940063680000646f0000672000005469000029
:1051a4006d6500006f750000743a00002000000077
:1051b4000a0000004d4300004c5200002061000032
:1051c4007373000065720000746900006f6e000064
:1051d4002e0a000000420000726f0000776e00008b
:1051e4002d6f0000757400002e0a000000540000aa
:1051f4007261000070200000436f00006e660000c2
:105204006c690000637400002e0a0000004900006d
:105214006c6c000065670000616c000020430000b6
:105224006f6e000064690000746900006f6e000016
:105234002e0a0000004300006f6e00006669000043
:105244006775000072610000746900006f6e0000f1
:10525400204d0000697300006d610000746300005c
:10526400682e00000a000000556e00006b6e0000fe
:105274006f7700006e200000726500007365000007
:10528400742e00000a00000045720000726f0000d6
:1052940072200000747200006170000070650000ec
:1052a400643a00002000000050720000696f0000a2
:1052b40072690000747900003a200000002c00009c
:1052c4002056000065630000746f00007220000027
:1052d4006e7500006d620000657200003a200000e7
:1052e400000a00000a00000045720000726f00000e
:1052f40072200000696e0000202e00002e2f000096
:105304002e2e00002f2e00002e2f00004c610000d6
:10531400623600002f6c0000696200002f730000e9
:10532400726300002f7000006963000032340000d3
:105334005f750000746900006c2e0000632000009b
:105344006c6900006e6500002034000036390000ee
:105354003a2000004153000053450000525400001d
:1053640028750000313600005f620000726700009b
:10537400682000003c3d000020310000292000008e
:1053840066610000696c0000656400002e0a00007c
:1053940000450000727200006f7200002069000076
:1053a4006e2000002e2e00002f2e00002e2f000055
:1053b4002e2e00002f4c000061620000362f0000ea
:1053c4006c690000622f000073720000632f0000fc
:1053d4007069000063320000345f000075740000df
:1053e400696c00002e630000206c0000696e0000f0
:1053f4006520000034370000353a000020410000e9
:10540400535300004552000054280000665f00001a
:1054140062720000672000003c2000003635000066
:1054240035330000352e00003529000020660000c9
:10543400616900006c650000642e00000a00000031
:1054440055410000525400003120000070610000fa
:105454007269000074790000206500007272000017
:105464006f7200000a000000554100005254000011
:105474003120000066720000616d0000696e00005a
:105484006720000065720000726f0000720a00005d
:10549400005500004152000054310000206f00000c
:1054a4007665000072720000756e000020650000d1
:1054b400727200006f7200000a0000004572000062
:1054c400726f000072200000696e0000202e000040
:1054d4002e2f00002e2e00002f2e00002e2f000055
:1054e4004c610000623600002f6c0000696200000d
:1054f4002f730000726300002f70000069630000c6
:10550400323400005f75000061720000742e0000e8
:10551400632000006c6900006e6500002033000009
:10552400363100003a20000041530000534500008a
:105534005254000028750000333200005f620000fe
:105544006175000064520000617400006520000071
:105554003e3d00002031000030300000304c00009f
:105564002920000066610000696c00006564000089
:105574002e0a000000550000415200005432000081
:10558400207000006172000069740000792000003e
:1055940065720000726f0000720a0000005500007e
:1055a4004152000054320000206600007261000085
:1055b4006d6900006e6700002065000072720000d3
:1055c4006f7200000a0000005541000052540000b0
:1055d400322000006f7600006572000072750000d2
:1055e4006e20000065720000726f0000720a0000f5
:1055f40000450000727200006f7200002069000014
:105604006e2000002e2e00002f2e00002e2f0000f2
:105614002e2e00002f4c000061620000362f000087
:105624006c690000622f000073720000632f000099
:105634007069000063320000345f0000756100008f
:10564400727400002e630000206c0000696e00007c
:105654006520000037350000313a00002041000089
:1056640053530000455200005428000075330000d5
:10567400325f000062610000756400005261000046
:1056840074650000203e00003d2000003130000021
:10569400303000004c2900002066000061690000e1
:1056a4006c650000642e00000a00000045720000d2
:1056b400726f000072200000696e0000202e00004e
:1056c4002e2f00002e2e00002f2e00002e2f000063
:1056d4004c610000623600002f6c0000696200001b
:1056e4002f730000726300002f70000069630000d4
:1056f400323400005f7300006572000069610000cd
:105704006c2e0000632000006c6900006e650000d0
:1057140020380000303a0000204900006e76000076
:10572400616c0000696400002055000041520000d3
:105734005400000030780000004500007272000040
:105744006f720000206900006e2000002e2e000001
:105754002f2e00002e2f00002e2e00002f4c0000b4
:1057640061620000362f00006c690000622f0000a7
:1057740073720000632f0000706900006332000040
:10578400345f00007365000072690000616c000002
:105794002e630000206c0000696e0000652000008c
:1057a40032390000353a0000204900006e760000ce
:1057b400616c000069640000205500004152000043
:1057c4005400000045720000726f00007220000057
:1057d400696e0000202e00002e2f00002e2e0000e7
:1057e4002f2e00002e2f00004c61000062360000b6
:1057f4002f6c0000696200002f73000072630000c8
:105804002f70000069630000323400005f730000f1
:1058140065720000696100006c2e000063200000c6
:105824006c6900006e650000203300003334000012
:105834003a200000496e0000766100006c690000a7
:105844006420000055410000525400000000000094
:1058540050c3000030750000204e000010270000e7
:1058640088130000b80b0000d0070000e803000014
:10587400f40100002c010000c800000064000000d6
:10588400320000001e000000140000000a000000a6
:1058940005000000030000000200000001000000f9
:1058a4000503000002010000321e0000140a00007b
:1058b40005030000020100000503000002010000ce
:1058c400050300000201000045720000726f000031
:1058d40072200000696e0000202e00002e2f0000b0
:1058e4002e2e00002f2e00002e2f00004c610000f1
:1058f400623600002f6c0000696200002f73000004
:10590400726300002f7000006963000032340000ed
:105914005f740000696d0000657200002e63000072
:10592400206c0000696e000065200000353800001e
:105934003a20000041530000534500005254000037
:10594400286600005f740000696300006b73000048
:10595400203c0000203600003535000033350000bf
:105964002e3500002920000066610000696c0000eb
:10597400656400002e0a00000045000072720000f9
:105984006f720000206900006e2000002e2e0000bf
:105994002f2e00002e2f00002e2e00002f4c000072
:1059a40061620000362f00006c690000622f000065
:1059b40073720000632f00007069000063320000fe
:1059c400345f0000746900006d650000722e0000f1
:1059d400632000006c6900006e6500002037000041
:1059e400363a0000204100005353000045520000a5
:1059f40054280000665f000074690000636b0000b7
:105a0400732000003c2000003635000035330000d0
:105a1400352e000035290000206600006169000071
:105a24006c650000642e00000a000000457200004e
:105a3400726f000072200000696e0000202e0000ca
:105a44002e2f00002e2e00002f2e00002e2f0000df
:105a54004c610000623600002f6c00006962000097
:105a64002f730000726300002f7000006963000050
:105a7400323400005f740000696d0000657200003c
:105a84002e630000206c0000696e00006520000099
:105a940031360000303a000020410000535300002a
:105aa4004552000054280000753800005f5400007f
:105ab400434b000050530000203c00003d200000f8
:105ac4003329000020660000616900006c65000055
:105ad400642e00000a0000000a0a0000596f00004a
:105ae40075720000206300006c6f0000636b00009f
:105af40020630000686f00006963000065200000f7
:105b040066610000696c0000656400002074000098
:105b14006f200000696e0000697400006961000074
:105b24006c6900007a6500002e20000053650000b7
:105b3400652000002e2e00002f2e00002e2f0000c6
:105b44002e2e00002f4c000061620000362f000052
:105b54006c690000622f000073720000632f000064
:105b64007069000063320000345f0000636c000061
:105b74006f6300006b66000072650000712e000008
:105b8400632000006c6900006e6500002031000095
:105b940034360000206600006f720000206d0000a3
:105ba4006f720000652000006465000074610000ed
:105bb400696c0000732e0000004500007272000042
:105bc4006f720000206900006e2000002e2e00007d
:105bd4002f2e00002e2f00002e2e00002f4c000030
:105be40061620000362f00006c690000622f000023
:105bf40073720000632f00007069000063320000bc
:105c0400345f0000636c00006f6300006b6600008b
:105c140072650000712e0000632000006c690000b2
:105c24006e65000020310000373200003a20000089
:105c340041530000534500005254000028750000f1
:105c4400385f0000736f0000757200006365000028
:105c5400203c00002038000029200000666100007c
:105c6400696c0000656400002e0a0000000000005a
:105c74000a2e00002e2f00004d610000696e000006
:105c84002e6300002c20000062750000696c000087
:105c9400742000006f6e000020410000707200004c
:105ca400203100003920000032300000313500007e
:105cb4002061000074200000313100003a350000fa
:105cc400393a0000323300000a0000006672000016
:105cd40065710000756500006e630000793a00008c
:105ce40020250000640a000000000000535000005a
:105cf400493100002052000065630000656900001e
:105d040076650000204f0000766500007266000092
:105d14006c6f0000770a0000005300005049000037
:105d240032200000526500006365000069760000bf
:105d3400652000004f76000065720000666c00006c
:105d44006f7700000a000000636f00006e760000a9
:105d540065720000744100004443000031280000d3
:045d64002900000012
:020000040000fa
:105d68000000fa00310907000080fa000000060070
:105d78000400fa00004f7800110798001e427800ce
:105d8800e04f520002003a001e0090004c0007004d
:105d98000080fa00000006000000fa0011eea900d9
:105da80017eea9001beea9001deea90017eea8002a
:105db800a43122009500200084c0880095c0880086
:105dc8006022b80064c0880075c0880015eea9007c
:105dd800020007000080fa00000006000000fa0038
:105de80064c0800075c0800061024200e0824a0001
:105df80064c0880075c0880066c0800077c08000d5
:105e080084c0800095c08000840f5300858f5b009c
:105e180004003600050007006022b80064c088004e
:105e280075c088000080fa00000006000000fa0033
:105e3800a47080000482ea004f22de000442780049
:105e48000482fb004f22dd00a6708000f5ff2700ca
:105e58008502630005027200a47088000080fa00c1
:105e6800000006003600f800809fbe00829fbe003a
:105e7800849fbe00869fbe003200f80000202000ec
:105e880090018800000000000000fa00c481210091
:105e980045468000050a7800a04b2a000800070044
:105ea8000080fa003200f9004f03be004f02be0026
:105eb8004f01be004f00be003600f900004006004a
:105ec8000200fa00000f7800c4c08000e00f520002
:105ed80003003a001e027800c4c088000000fe00db
:105ee8000080fa00000006000600fa00100798007b
:105ef800210798001e029000040f78001e029000ef
:105f0800ae029000402ade0004027800a402880055
:105f18001e0278001482ba0005002000c023dd00ac
:105f2800060020001e0278001402ba0005002000b6
:105f380004027300858273000400be000080fa002a
:105f4800000006000e00fa0000002000f10f2000fb
:105f5800e5ff07000002be003407980045079800d7
:105f680020002000f10f2000dfff07000002be0024
:105f7800540798006507980014c0b300044f7800d0
:105f8800044d2a0014079800044d2a00240798009d
:105f98003e039000ce039000d4e4210005002000c9
:105fa800840f5300858f5b0003003a00844d2a005c
:105fb80014079800020037000042eb00044f7800f5
:105fc8005e039000ee0390003400240005002000da
:105fd800840f5300858f5b0003003a00a44e2a000b
:105fe8002407980000000000d04e2a00d5030700bf
:105ff8003e009000ce00900063040700a04f2a00e6
:10600800d00307001e009000ce030700d04f2a00df
:10601800cc0307005e009000ee0090005a040700d1
:10602800a04f2a00c70307002e009000c5030700f1
:10603800a0502a00c30307001e427800e04f520018
:1060480002003a00d0502a00be0307000080fa0080
:10605800000006000000fa00143a80004c22de001e
:10606800674262000482fb00cfa2de0076002000b7
:1060780007002000860f5200878f5a0021003e003b
:106088000406010007003700090037000b0037003d
:106098000d0037000f0037001100370013003700dc
:1060a80015003700407a2a00a603070018003700b9
:1060b800107b2a00a303070015003700707c2a0014
:1060c800a003070012003700107e2a009d03070076
:1060d8000f00370040802a009a0307000c003700a1
:1060e80030812a00970307000900370050822a00f0
:1060f800940307000600370050832a009103070025
:106108000300370040842a006dff070000000000ec
:106118000080fa00000006000200fa000042eb00ce
:10612800044f7800043a800068026200e00f5200d1
:1061380003003200d0852a00820307004067a900c7
:10614800043a800064026200e00f5200030032004b
:10615800d0872a007b0307004047a900c0892a008e
:1061680078030700043a800061026200e00f5200e1
:106178000e00320014c0b300044f7800b08a2a0021
:10618800700307004007a9004027a9000002eb00a0
:10619800c4c088000002eb00d4c08800c48121007c
:1061a8008002eb00050a78004e003700053a8000af
:1061b8000404200004826200e00f5200060032004e
:1061c800608b2a005f03070014c0b300044f7800f7
:1061d80040c7a90040e7a900043a800070026200a5
:1061e800e00f52000e00320014c0b300044f7800d4
:1061f800708c2a0053030700d4c08000e00f5200bf
:1062080003003200d4c08000040078004d0307006a
:10621800a08d2a004b0307004087a90040e7a9008a
:10622800053a80000408200004826200e00f520052
:106238000500320014c0b300044f7800c08d2a0056
:106248004003070040e7a900043a800062026200a8
:10625800e00f52000500320014c0b300044f78006c
:10626800d08e2a00370307004027a900053a80008e
:106278000400280004826200e00f5200050032008a
:1062880014c0b300044f7800908f2a002d03070034
:1062980041e7a900053a8000040024000482620056
:1062a800e00f52000500320014c0b300044f78001c
:1062b80090902a002303070041c7a900053a8000ef
:1062c8000420200004826200e00f52000500320022
:1062d80014c0b300044f7800d0912a0019030700b6
:1062e8004127a9001e427800e04f520002003a0000
:1062f80060932a0013030700c4c08000e00f520017
:106308001d00320060942a000e030700c4c08000fc
:10631800040078000b030700c481210014027800f0
:10632800e00f52000d00320060952a0005030700b7
:10633800e4c080004822de006f426200044078001a
:106348007a03070010962a00fe020700c481210084
:1063580014427800044078007403070030972a003c
:10636800f80207000002eb00c4c08800c4812100c5
:106378008002eb00050a7800f2fe070035ff0700ef
:106388000080fa00000006000200fa00000f780002
:1063980081fe070072fe070000402800310020003f
:1063a8005f0407005cff07001e007800e502070095
:1063b8000080fa00000006000800fa00881f780034
:1063c80020079800310798002e009000be0090002a
:1063d800e9f107000002be00048fbe001e00be00e7
:1063e80003f207000002be000401be002e00900068
:1063f800be00900019f107000002be0018c0b300eb
:106408000200200003f023000400be00b5f10700dd
:1064180000027800e00f5200010035000044eb0054
:10642800e04f5400020032001e02be000400370094
:1064380016002000070020003e024300ae824b00f9
:106448000400be004f0478000080fa000000060037
:106458000600fa00881f78001007980021079800a6
:106468001e009000ae009000c3f107000002be00bd
:10647800040f78001e027800050020000400be000a
:10648800dbf107000002be000401be001e00900000
:10649800ae009000f1f007000002be0018c0b30083
:1064a8000200200003f023000400be008df1070065
:1064b80000027800e00f5200010035000044eb00b4
:1064c800e04f5400020032001e027800010037003d
:1064d8001e02e800040078004f0478000080fa00eb
:1064e800000006000e00fa00889fbe0020079800f2
:1064f80031079800420798005407980065079800ec
:1065080014c0b300ce029000e18f520001003600a3
:106518000042eb0061972a000440780014fe07004f
:106528004e029000e00f520018003a002e00900032
:10653800be009000aef107000004be005e009000af
:10654800ee009000aaf107000002be000401be00a0
:106558000800be0021f107000002be000200200072
:10656800031824000400be001cf107000002be004e
:106578000200200003f823000400be00b7f0070063
:106588000002be00048fbe00170037002e009000e6
:10659800be00900096f107000004be005e00900067
:1065a800ee00900092f107000002be000401be0058
:1065b8000800be0009f107000002be00020020002a
:1065c800030824000400be0004f107000002be0016
:1065d8000200200003f823000400be009ff007001b
:1065e8000002be00048fbe0018c0b30002f82f00de
:1065f800f37724001e00be003af10700000278007d
:10660800e00f5200010035000044eb00b19c2a0065
:1066180008407800d6fd07001e00be008cff07006a
:1066280000027800040078004f04be000080fa00e1
:10663800000006000800fa00000f78001107980013
:10664800220798003307980004402100841f78002f
:10665800070021003e039000ae0290001e02900049
:106668009e017800120020008000eb00001020003e
:10667800030007008f87e9000080fa000000060089
:106688002c00fa00889fbe00600f9800710f9800d8
:1066980002179800131798002417980035179800c8
:1066a8004617980057179800ee0a9000240020001b
:1066b800110009008402d80000027800140798002d
:1066c8006e0a9000e20f5200e90032000e129000ac
:1066d80004024200040078004e129000841f7800e3
:1066e800be1390004ebb9700de1290002e12900051
:1066f8009e11900000017800fe0890001e00900096
:10670800dfff07008f87e9000e12900004024200a5
:1067180084007800fe0a90000e1290000480420067
:106728004e129000841f7800be1390004ebb970055
:10673800de1290002e1290009e1190000101780048
:10674800800078001e009000cdff07008f87e900c9
:106758000002eb00040f7800c00037009e027800aa
:106768000e12900084aab900840278007e0a900074
:1067780004824200240798009e0290000e129000a6
:1067880084aab900840278002e0290000482420094
:10679800340798001e027800040242008402780040
:1067a8000e12900084aab900840278007e0a900034
:1067b8000482420044079800ce0290000e12900016
:1067c80004824200540798001e027800cfa2de001f
:1067d8000400be0003f107000002be00a2fd200075
:1067e800930c24000400be0056f107000002be000e
:1067f8000404be006e0a9000cfa2de000400be00b2
:10680800f8f007000002be000401be000800be0048
:1068180072f007000002be000400be006df0070021
:106828000002be0064079800750798001e027800f1
:10683800cfa2de000400be00eaf007000002be009e
:10684800a2fd2000930c24000400be003df10700c7
:106858000002be000404be006e0a9000cfa2de0053
:106868000400be00dff007000002be000401be0005
:106878000800be0059f007000002be000400be0078
:10688800cdf107000002be00040f9800150f980014
:106898005e0290004222dd00de1290000482420077
:1068a8001402be006e019000fe0190000400be00bc
:1068b80024f107000002be000404be005e0290003e
:1068c8004222dd00ceba9700048242001402be00c4
:1068d8000e0990009e0990000400be0019f10700ff
:1068e8000002be000401be000800be00dcef070085
:1068f8000002be00240f9800350f98005e02900039
:106908004222dd00ceba9700048242001402be0083
:106918006e019000fe0190000400be0009f107001e
:106928000002be000404be005e0290004222dd00a8
:10693800de129000048242001402be000e0990008c
:106948009e0990000400be00fef007000002be0091
:106958000401be000800be00c0ef07000002be0030
:10696800440f9800550f98003e0290004222dd0027
:10697800be129000048442004e0290004222dd00c4
:10698800de129000048242001402be002e0990001c
:10699800be0990000400be00b0ef07000002be0070
:1069a800048cbe003e0290004222dd00ce12900010
:1069b800048442004e0290004222dd00ceba9700c5
:1069c800048242001402be004e099000de099000c5
:1069d8000400be00a1ef07000002be00048cbe0048
:1069e8002e0290004222dd00be1290000484420074
:1069f8004e0290004222dd00de1290000482420026
:106a08001402be002e099000be0990000400be00ca
:106a180093ef07000002be00048cbe002e02900017
:106a28004222dd00ce129000048442004e02900003
:106a38004222dd00ceba9700048242001402be0052
:106a48004e099000de0990000400be0084ef0700a4
:106a58000002be00048cbe001e0fe8001e0290005b
:106a68009e027800848f52003cff350052003700a8
:106a78007e08900020079800ae0290000e12900049
:106a880004824200340798003e0290004222dd0052
:106a9800be129000048442002e0290004222dd00c3
:106aa8009e129000048242001403be003e02900031
:106ab8004222dd009e129000048242001402be00b1
:106ac8000401be000600be0064ef07000002be001d
:106ad800048cbe003e0290004222dd00ce129000df
:106ae800048442002e0290004222dd00ae12900083
:106af800048242001403be003e0290004222dd00e0
:106b0800ae129000048242001402be000401be00ce
:106b18000600be0051ef07000002be00048cbe0054
:106b28002e0290004222dd00be1290000484420032
:106b38002e0290004222dd009e1290000482420044
:106b48001403be003e0290004222dd009e12900017
:106b5800048242001402be000401be000600be000a
:106b68003fef07000002be00048cbe002e0290001a
:106b78004222dd00ce129000048442002e029000d2
:106b88004222dd00ae129000048242001403be00cf
:106b98003e0290004222dd00ae12900004824200c4
:106ba8001402be000401be000600be002cef070060
:106bb8000002be00048cbe004f04be000080fa0034
:106bc800000006000800fa00889fbe00008fbe0083
:106bd80022079800330798001e01be001e00be0061
:106be80058f007000002be000404be002e01900009
:106bf800be0190002e009000be00900051f00700ea
:106c08000002be000401be000800be0014ef070029
:106c18000002be000400be00e9f007000002be004a
:106c28000400be004f04be000080fa000000060009
:106c38000a00fa00881f78001007980021079800ba
:106c480032079800430798000002eb00040f780011
:106c5800140037001e0278004222dd00ce029000a8
:106c6800048442001e0278004222dd00be02900029
:106c7800048242001402be001e0378004233dd0085
:106c8800ae039000068343001603be000401be0055
:106c98000600be00cbff07000002be00048cbe0049
:106ca8001e0fe8001e0290009e027800848f52009a
:106cb800e8ff35004f0478000080fa000000060065
:106cc8001e00fa00889fbe00600f98000002eb00cb
:106cd800040f780014002000340798001c003700c7
:106ce8003e0290004222dd00ee0a9000048242003b
:106cf8001402be0018c0b3001e019000ae0190003f
:106d08000400be0079ef070000027800e00f52008f
:106d180001003c000044eb00e04f54000900320041
:106d28003e029000040f78003e0290004222dd00ef
:106d3800ee0a9000048242001403be001607980071
:106d4800270798003e0290000402e80034079800e4
:106d5800be029000f4072000848f5200e0ff340048
:106d68001e0278004222dd00ee0a900004824200f2
:106d78001402be0018c0b30002002000a34f240074
:106d88000400be0057ef070000027800e00f520031
:106d9800010035000044eb00e04f540002003200cf
:106da8006022b800510037001e0278000402e90092
:106db8004222dd00ee0a9000048242001403be0065
:106dc80046079800570798001e0278004222dd0007
:106dd800ee0a9000048242001403be006607980081
:106de800770798001e0278000402e8004222dd00be
:106df800ee0a9000048242001403be00060f9800b9
:106e0800170f98000e0990009e0990004e00900000
:106e1800de00900091ee07000002be000200200094
:106e280003f023000400be00c6ef07000002be0006
:106e38000404be006e029000fe0290000401be0031
:106e48000400be0086ee07000002be000401be007a
:106e58004e009000de00900080ee07000002be00a9
:106e68000e0990009e0990000400be007cee070009
:106e78000002be000401be000800be00d7ee0700f5
:106e88000002be00240f9800350f98001e027800fb
:106e9800cfa2de000400be0052ef07000002be00d1
:106ea8002e099000be0990000400be006cee070099
:106eb8000002be0002002000a35f24000400be0000
:106ec800a0ef07000002be000200200003382400e3
:106ed8000400be00c1ee07000002be00440f980087
:106ee800550f98004e0a9000de0a90000400be007c
:106ef8004f04be000080fa00000006000200fa00fd
:106f0800004f7800b4c88000e10f5200030032003f
:106f1800e20f520004003200060037001e407800dd
:106f280043050700050037001e407800b905070033
:106f38000200370080b52a00e1fb07000080fa0054
:106f4800000006000200fa00000f78000500370074
:106f58001e0278001442780004407800e7ff07001a
:106f68001e0fe8001e02780014427800e04f52001d
:106f7800f7ff3a000080fa00000006000a00fa0055
:106f88002007980031079800024f98003e029000b1
:106f9800e00f520002003a000002eb002600370022
:106fa8000002eb00140798000002eb001407980099
:106fb800190037000e4a9000e04f520004003200da
:106fc8003a01070000427800044f780003003700b8
:106fd8002301070000427800044f78001e42780021
:106fe800ea4f5200100032001e427800ed4f520066
:106ff8000d0032001e427800ae029000844a7800ec
:107008002e0290000402e800240798001e02900057
:107018000402e800140798009e0290003e029000c7
:10702800848f5200e3ff3900ae0290000042eb006b
:10703800844a78001e029000040078000080fa005c
:10704800000006000400fa00000f780011079800fd
:107058001e0290000041eb00840078001e007800ba
:10706800c6ff070000027800040078000080fa00dc
:10707800000006000400fa00000f780011079800cd
:107088001e02900012c0b300840078001e00780031
:10709800baff070000027800040078000080fa00b8
:1070a800000006000400fa00204798002e429000d5
:1070b8000482fb004422de00044f78001e42780060
:1070c800e94f52000500360075c3b3001ec24200e6
:1070d8000440780089ff07000400370005c3b300a7
:1070e8001ec242000440780084ff07002e42900030
:1070f8006f4f62001e427800e94f520005003600cb
:1071080075c3b3001ec24200044078007bff07002d
:107118000400370005c3b3001ec2420004407800d3
:1071280076ff07000080fa00000006000200fa005f
:10713800004f7800c0b92a0082ff07001e4078007f
:10714800d8ff07000080fa00000006000400fa00db
:1071580010079800c0b92a007aff07001e029000a5
:107168004822de00044f78001e407800cdff07005b
:107178001e029000044f78001e407800c9ff0700e7
:107188000080fa00000006000600fa0010079800c8
:1071980021079800c0b92a006aff07001e02900064
:1071a800ae029000482ade00044f78001e407800a6
:1071b800bcff07001e029000ae029000402ade00cd
:1071c800044f78001e407800b6ff07001e029000aa
:1071d800ae029000482bdd004822de000402730056
:1071e800c82ade00044f78001e407800adff070073
:1071f8001e029000044f78001e407800a9ff070087
:107208000080fa00000006000a00fa00004f98000b
:107218000042eb00044f78000e4a90001447980093
:1072280004c3b3002447980004c3b300344798004c
:1072380004c3b300444798000042eb005447980049
:107248009e42900074ccb30084cf520006003600f2
:107258002e42900004c2e800244798001e42900085
:107268008443b000144798009e42900034c6b3008f
:1072780084cf5200070036002e4290000442e800f6
:10728800244798009e429000c4c9b30004c242003b
:10729800144798000042eb00044f780024003700a0
:1072a8009e4278000582fb0065c52a0004824200e0
:1072b800944278001e42900084cf52001b003e008a
:1072c8009e4378000782fb004222de0004427800d9
:1072d8008482fb000503e8000482fb000402e80046
:1072e8000482e8006e427a00844278009e43780067
:1072f8000782fb00e7c52a00048243001442780095
:1073080004c242008682e80004f77a009e427800b0
:107318000582fb0065c52a000482420014427800f9
:107328009e42900004c25200144798001e4fe80085
:107338001e427800e74f5200d9ff36000042eb00aa
:10734800544798000e82e80004007800fdfe07000c
:107358000080fa00000006000c00fa0050079800b0
:107368000042eb00044f78005e029000140798007a
:1073780004c3b3004447980004c3b30054479800bb
:1073880004c3b3006447980004c3b300744798006b
:1073980004c3b300044f98000042eb00044f780088
:1073a800250037009e4278000582fb0084024200d7
:1073b800a4c22a0004824200940278001e029000af
:1073c800848f52001b003e009e4378000782fb001a
:1073d8004222de00044278000483fb000482fb00a2
:1073e800640242006e427a00844278009e4378002c
:1073f8000782fb006302620027c52a00048243005b
:107408001442780004c24200e402430004f77a0000
:107418009e4278000582fb0084024200a4c22a0032
:1074280004824200140278009e02900004825200f6
:10743800140798001e4fe8001e427800f34f5200d0
:10744800d8ff36000042eb00144f98006402470052
:1074580004007800bbfe07000080fa000000060068
:107468000000fa00b4c88000e10f520003003200a7
:10747800e20f520004003200060037000104070042
:1074880000427800060037007704070000427800c1
:1074980003003700f0b92a0089fa07000042eb0020
:1074a800044078000080fa00000006000200fa009c
:1074b800ebff070000427800044f78001e40780078
:1074c8008efe07001e427800044078000080fa0013
:1074d800000006000000fa00b4c88000e10f520066
:1074e80003003200e20f52000400320006003700a9
:1074f800dd03070000427800060037005304070048
:10750800004278000300370040be2a006cfa0700ea
:107518000042eb00044078000080fa0000000600fa
:107528000400fa00008fbe0014002000b4c88800d0
:107538001e00be00e00307000080fa0000000600fd
:107548000400fa00004f7800110798001e427800e6
:10755800e04f520002003a001e00900058fa07005f
:107568000080fa00000006000a00fa00889fbe00aa
:10757800300798004107980084dc260045c624009f
:10758800048fbe003e029000050020000400be00eb
:1075980097ed07000002be001e01be000400be00f9
:1075a800e8ed07000002be000404be004e02900091
:1075b800050020000400be008ded07000002be009b
:1075c8000401be000800be0004ed07000002be0072
:1075d80002002000a34724000400be00ffec0700bf
:1075e8000002be00048fbe0018c0b30002f82f00ce
:1075f800f37724001e00be003aed07000002780071
:10760800e00f5200010035000044eb0061c62a007b
:1076180008407800caff07001e00be008cfb070068
:1076280000027800240798002e02900004007800d9
:107638004f04be000080fa00000006000a00fa00ad
:10764800889fbe00300798004107980084dc260018
:1076580045c62400048fbe003e02900005002000ad
:107668000400be0062ed07000002be001e01be005d
:107678000400be00b3ed07000002be000404be0013
:107688004e029000050020000400be0058ed0700df
:107698000002be000401be000800be00cfec0700d7
:1076a8000002be0002402200439724000400be00ee
:1076b800caec07000002be00048fbe0018c0b30069
:1076c80002f82f00f37724001e00be0005ed070026
:1076d80000027800e00f5200010035000044eb0082
:1076e800f1cb2a000840780095ff07001e00be0075
:1076f80057fb070000027800240798002e0290002c
:10770800040078004f04be000080fa000000060064
:107718000e00fa00889fbe004007980051079800a5
:107728006207980084dc260045c62400048fbe004a
:107738004e009000de0090002ded07000002be0014
:107748001e01be000400be007eed07000002be0060
:107758000404be006e029000050020000400be0074
:1077680023ed07000002be000401be000800be00b1
:107778009aec07000002be00024022004397240052
:107788000400be0095ec07000002be00048fbe0096
:107798001e00be0008fb07000002be002407980078
:1077a800350798002e029000be0290000400be002b
:1077b8004f04be000080fa00000006000e00fa0028
:1077c8004007980051079800620798004e00900003
:1077d800de00900006ed07000002be00048fbe0028
:1077e8006e029000050020000400be0000ed0700b6
:1077f8000002be001e01be000400be0051ed0700dd
:107808000002be0082dc260043c624000400be003d
:1078180072ec07000002be0002002000a34724000b
:107828000400be0047ed07000002be00048fbe0042
:107838001e00be00e0fa07000002be002407980000
:10784800350798002e029000be0290000400be008a
:107858000080fa00000006000e00fa0040079800b9
:1078680051079800620798004e009000de009000d3
:10787800dfec07000002be00048fbe006e0290001d
:10788800050020000400be00d9ec07000002be007d
:107898001e01be000400be002aed07000002be0063
:1078a80082dc260043c624000400be004bec07001f
:1078b8000002be0002402200439724000400be00dc
:1078c80020ed07000002be00048fbe001e00be00af
:1078d800b9fa07000002be0024079800350798008f
:1078e8002e029000be0290000400be000080fa0044
:1078f800000006000e00fa004007980051079800a3
:10790800620798004e009000de009000b8ec070077
:107918000002be00048fbe006e0290000500200029
:107928000400be00b2ec07000002be001e01be004b
