:020000040000fa
:080000000002040000000000f2
:020000040000fa
:1000080002100000061000000a1000000e10000088
:1000180012100000161000001a1000001e10000038
:1000280022100000261000002a1000002e100000e8
:1000380032100000361000003a1000003e10000098
:1000480042100000461000004a1000004e10000048
:1000580052100000561000005a1000005e100000f8
:1000680062100000661000006a1000006e100000a8
:1000780072100000761000007a1000007e10000058
:1000880082100000861000008a1000008e10000008
:1000980092100000961000009a1000009e100000b8
:1000a800a2100000a6100000aa100000ae10000068
:1000b800b2100000b6100000ba100000be10000018
:1000c800c2100000c6100000ca100000ce100000c8
:1000d800d2100000d6100000da100000de10000078
:1000e800e2100000e6100000ea100000ee10000028
:1000f800f2100000f6100000fa100000fe100000d8
:1001080002110000061100000a1100000e11000083
:1001180012110000161100001a1100001e11000033
:1001280022110000261100002a1100002e110000e3
:1001380032110000361100003a1100003e11000093
:1001480042110000461100004a1100004e11000043
:1001580052110000561100005a1100005e110000f3
:1001680062110000661100006a1100006e110000a3
:1001780072110000761100007a1100007e11000053
:1001880082110000861100008a1100008e11000003
:1001980092110000961100009a1100009e110000b3
:1001a800a2110000a6110000aa110000ae11000063
:1001b800b2110000b6110000ba110000be11000013
:1001c800c2110000c6110000ca110000ce110000c3
:1001d800d2110000d6110000da110000de11000073
:1001e800e2110000e6110000ea110000ee11000023
:1001f800f2110000f6110000fa110000fe110000d3
:1002080002120000061200000a1200000e1200007e
:1002180012120000161200001a1200001e1200002e
:1002280022120000261200002a1200002e120000de
:1002380032120000361200003a1200003e1200008e
:1002480042120000461200004a1200004e1200003e
:1002580052120000561200005a1200005e120000ee
:1002680062120000661200006a1200006e1200009e
:0c02780072120000761200007a120000e2
:020000040000fa
:100400008f6621000eff22000e0188000000000010
:1004100000012000200288000c000700e08220007c
:10042000010020000f000700000020000000e00095
:100430000200320000000200000000000a04020076
:10044000000000000040da000000fe002000200054
:100450000000e0000200320010002000900188003f
:1004600000000600a1028800800078000000eb0078
:100470001a003700e280400054a0b4009101ba0095
:10048000e280400054a0b4009102ba00e280400033
:1004900054a0b4000002eb00472bde00f507b200c9
:1004a000a6018800602ce10008003a000049eb003a
:1004b0000201e800020039003420ec0002f0a00044
:1004c0008301e900f9ff3e00040037006128e100e4
:1004d000010032000082eb00040007001101ba00a5
:1004e0000200e000e3ff3a000000060004d0a30091
:1004f000e20f49001c003900810278003549ba003a
:100500000201e800020039003420ec0002f0a000f3
:100510008301e9000f0032002549ba000201e8001a
:10052000020039003420ec0002f0a0008301e90051
:10053000080032000400e0000600320015c9ba00cd
:100540000201e800020039003420ec0002f0a000b3
:100550008301e9008180e80054a0b4000300e000ba
:10056000e2ff3a00000006009102ba000559780047
:100570008301e900f7ff3200c82ade000559780040
:100580008301e900f3ff32000400e000f1ff3200d4
:1005900011d9ba00eeff37000040da000000fe007b
:1005a0006022b800060220000000d0008180d20046
:1005b0000482d2008582d2000000a0000202520014
:1005c00083825a00030031000202420083824a0003
:1005d0000000a1000603e900f3ff3a000000060056
:020000040000fa
:1005e0000000fa009f0107000080fa0000000600ea
:1005f0000000fa000510200004408000050262009f
:10060000020032000048eb000d0037002242ab0030
:1006100002003200341180000000fe002222ab00f4
:10062000020032002222a9000000fe002202ab00dc
:10063000f1ff320011e1a900341180000448780074
:100640000080fa00000006000000fa00889fbe004b
:100650008a9fbe00000578000204be000b602000e7
:100660008b0545008800780009007800ee0107003e
:10067000014d78004882de0014459800204598001e
:100680006305450062044400e0844c008b0f550074
:10069000f4ff3a004f05be004f04be000080fa0090
:1006a000000006000000fa00052020001411800060
:1006b00005026200fdff3a000000fb0020118800e7
:1006c0000080fa00000006000000fa00889fbe00cb
:1006d0008a1f780001057800e00f550007003400fc
:1006e000800478000004eb0039407800edff07003b
:1006f0000804e800880f5500fbff3c004f05780018
:100700004f04be000080fa00000006000600fa0058
:10071000889fbe008a9fbe008c9fbe000204be0060
:10072000000578000002eb00040f78000bf02f00aa
:100730009a4278000582fb001e03900086826500c5
:1007400004827200140798001a4390004833dd00b9
:10075000f50f2000050262000602720014079800df
:100760002a4190000281fb002e0390000682650062
:100770000201720005016100220798003a429000d0
:100780000482fb000c836500040273004a4390005e
:100790004833dd0005026200060672005a429000ee
:1007a0000482fb000d8365000402730005026200f1
:1007b000840678009e027800e6824200050f7800e9
:1007c0008c0278009e019000880078000900780073
:1007d0008b010700120024008800780009007800cf
:1007e0006c01070064044400e0844c006605450089
:1007f0001e03780004602000840f5300ccff3a00f1
:100800004f06be004f05be004f04be000080fa0038
:10081000000006000e00fa00889fbe008a9fbe00fe
:100820008c1f78000002eb00840888009408880080
:10083000041188006aff070040a7a90004002100f6
:10084000050020008400780005007800760107008c
:100850000004be0040c7ab00010032007801070071
:10086000e04f5400040032004007ab0003003a00a0
:1008700040e7ab0001003a00710107001061a800d9
:100880000108a9002108a900f40f2000050020009c
:100890000803620007002000840f5300858f5b006f
:1008a0000d0032000804fb00cfc4de0024722b00d0
:1008b000844ab800163920008643b8000602420078
:1008c00025722b000544b80089044200790888008d
:1008d0006808880011e1a8000040280031002000cd
:1008e0009c010700640647000e00780040ff0700e7
:1008f0001e4278000402fb00cfa2de00f30f52007c
:10090000e08f5a0082003e00040601007e0037009e
:100910007f00370011003700200037007c003700cf
:100920007b0037007a00370063003700740037001f
:100930004300370076003700750037007400370039
:100940007300370072003700710037007000370005
:10095000500037006e003700550037000e80e80069
:1009600023ff07006300470021ff07000c00780009
:100970001fff07000042eb00544798001e01900043
:10098000ae019000000021002fff07000160200051
:10099000000021004cff0700d3ff3700660047002e
:1009a00013ff07006700470011ff070068004700ba
:1009b0000fff07000042eb00144f98000004eb000b
:1009c000090021000a6020000900440008ff070018
:1009d0000804e8008a0f5400fbff3a003e02900032
:1009e000ce029000f67f20000403630008003a0066
:1009f000f6bf2000860f5200e08f5a000d0036002f
:100a000032002400be0090004e0090001701070045
:100a10003e029000ce029000f6bf2000860f5200ea
:100a2000e08f5a00030036000401be0000002100e0
:100a300036ff070010c0b3001aff0700aaff3700f7
:100a400004002000f50f20008400780005007800e5
:100a5000f50007005007980061079800410020004a
:100a60006a00470018ff070024002000f50f20004f
:100a70008400780005007800eb000700500798001c
:100a800061079800410020006a0047000eff070040
:100a900095ff370030c0b30002ff07000040eb00b5
:100aa00000ff070010c0b300fefe07008eff3700f6
:100ab000e80007008cff37000004eb00090021006c
:100ac0004b0220000805780009004400c8fe07001a
:100ad0000800e80009004000c5fe07006304440068
:100ae0000a85e80009004500c1fe070010c0b300f8
:100af000ecfe07008b0f5400f2ff3a007aff37003c
:100b0000d400070078ff3700cd00070076ff3700dc
:100b10000040eb00e3fe070073ff37000000fa001f
:100b20000080fa00000006000200fa00ff3ffc000f
:100b3000143a8000040f7800e7026000c82add0044
:100b4000f48f2f001e026200050272000400a00054
:100b5000040f78001e4390000683fb00a5092000c7
:100b60008407200037742000844b7800854b780080
:100b7000864b78001e4278000483fb007505200038
:100b80006404200027742000844b7800854b780093
:100b9000864b78000000fc004207ab00feff3a00e5
:100ba000e14f500002003200e34f500004003a00d1
:100bb00005022000143a800005026200fdff3200a9
:100bc0008082fb00143a80004c22de006702620043
:100bd000850f5200fbff3a000080fa00000006007b
:100be0000000fa000080fa00000006000000fa0091
:100bf0000040eb00ccff070000fc2f004827b600a8
:100c00000080fa00000006000000fa000040eb003f
:100c1000c5ff070000fc2f004827b600253a8000da
:100c200004fe2f00048262007400b300243a88009e
:100c3000353a800004e02f0004826200140cb300f7
:100c4000343a8800243a80000460a1000470a100b6
:100c5000243a880010c0b300b3ff07000080fa00f8
:100c6000000006000000fa000040eb00aeff0700a5
:100c700000fc2f004827b60000fe2f004427b600d6
:100c8000353a800004e02f0004826200f403b300d0
:100c9000343a8800243a80000460a1000470a10066
:100ca000243a880010c0b3009fff07000080fa00bc
:100cb000000006000000fa000040eb009aff070069
:100cc00000fc2f004827b60000fe2f004427b60086
:100cd000353a800004e02f0004826200a404b300cf
:100ce000343a8800243a80000460a1000470a10016
:100cf000243a880010c0b3008bff07000080fa0080
:100d0000000006000000fa000040eb0086ff07002c
:100d100000fe2f004427b600353a800004e02f0083
:100d2000048262006402b300343a8800243a8000ee
:100d30000460a1000470a100243a880030c0b30010
:100d400079ff07000080fa00000006000000fa00aa
:100d500020c0b30074ff07000080fa000000060006
:100d60000000fa00403988005405200074398800da
:100d7000a40a20007439880029e7a80000000000b8
:100d80000000000029e7af00feff37000080fa00f6
:100d9000000006000000fa00603988005139880020
:100da000423988000600fc00500520007039880098
:100db000a00a20007039880029e7a8000000000080
:100dc0000000000029e7af00feff37000080fa00b6
:100dd000000006000000fa00a002880081007800f0
:100de0000080fa00000006000000fa00a00288005f
:100df0008308bb008288bb000080fa000000060068
:100e00000000fa00a00f2000a002880001002000ce
:100e10008308bb008298bb008508bb008498bb0098
:100e20000080fa00000006000000fa00a00288001e
:100e30001100ba009180ba000080fa00000006009c
:100e40000000fa0000130400000000000080fa0017
:100e5000000006000000fa004007a800001304008c
:100e6000000000000080fa00000006000000fa0008
:100e70004239880060398800513988000600fc003a
:100e80005005200070398800a00a200070398800c1
:100e900029e7a800000000000000000029e7af00db
:100ea000feff37000080fa00000006000000fa0094
:100eb0000080fa00000006000000fa00881f780099
:100ec000020478000401be00b5fd0700e00f5400e5
:100ed0000f003a006f026000e70f52000500360075
:100ee0004c0add004400de0000007200c408de0091
:100ef000150037004c0add004400de0000007200df
:100f0000c408de0061005000e08058000e00370089
:100f100063026000e10f5200050036004e0add005a
:100f20004200de0000007200c208de00060037004a
:100f30004e0add004200de0000007200c208de0042
:100f400061005000e08058004f0478000080fa00f3
:100f5000000006000000fa001400200014b0880011
:100f6000060007000080fa00000006000000fa00fa
:100f70002c0007000080fa00000006000000fa00c4
:100f8000114ea800174ea9001b4ea9001d4ea90026
:100f90002536800004f82f0004826200a402b3000a
:100fa00024368800116ea900176ea9001b6ea900d7
:100fb0001d6ea90045348000f40f2c0004826200ed
:100fc0000480a000443488000001eb000211880076
:100fd0000002be0020722b0011392000b6ff07006e
:100fe00040118800040028000411880004402100fa
:100ff00014118800909e2e0001002000dbff0700e6
:101000002222a90001003700341180002262ab00c7
:10101000fdff3a002242ab00fbff3a000080fa00dd
:0410200000000600c6
:020000040000fa
:10102400f03fb1000180b10006003500ee03090075
:1010340000000000403fb1000180b100fbff3d0013
:101044001000b000203fb00002003500008009000d
:0810540000000000000006008e
:020000040000fa
:10105c0002160000020000008200000001000000e7
:04106c000000000080
:020000040000fa
:020000040001f9
:045fe000cfff0000ef
:020000040000fa
:020000040001f9
:045fe400efff0000cb
:020000040000fa
:020000040001f9
:045fe80079ff00003d
:020000040000fa
:020000040001f9
:045fec005dff000055
:020000040000fa
:020000040001f9
:045ff00078ff000036
:020000040000fa
:020000040001f9
:045ff400cfff0000db
:00000001FF
