:020000040000fa
:080000000002040000000000f2
:020000040000fa
:10000800020c0000060c00000a0c00000e0c000098
:10001800120c0000160c00001a0c00001e0c000048
:10002800220c0000260c00002a0c00002e0c0000f8
:10003800320c0000360c00003a0c00003e0c0000a8
:10004800420c0000460c00004a0c00004e0c000058
:10005800520c0000560c00005a0c00005e0c000008
:10006800620c0000660c00006a0c00006e0c0000b8
:10007800720c0000760c00007a0c00007e0c000068
:10008800820c0000860c00008a0c00008e0c000018
:10009800920c0000960c00009a0c00009e0c0000c8
:1000a800a20c0000a60c0000aa0c0000ae0c000078
:1000b800b20c0000b60c0000ba0c0000be0c000028
:1000c800c20c0000c60c0000ca0c0000ce0c0000d8
:1000d800d20c0000d60c0000da0c0000de0c000088
:1000e800e20c0000e60c0000ea0c0000ee0c000038
:1000f800f20c0000f60c0000fa0c0000fe0c0000e8
:10010800020d0000060d00000a0d00000e0d000093
:10011800120d0000160d00001a0d00001e0d000043
:10012800220d0000260d00002a0d00002e0d0000f3
:10013800320d0000360d00003a0d00003e0d0000a3
:10014800420d0000460d00004a0d00004e0d000053
:10015800520d0000560d00005a0d00005e0d000003
:10016800620d0000660d00006a0d00006e0d0000b3
:10017800720d0000760d00007a0d00007e0d000063
:10018800820d0000860d00008a0d00008e0d000013
:10019800920d0000960d00009a0d00009e0d0000c3
:1001a800a20d0000a60d0000aa0d0000ae0d000073
:1001b800b20d0000b60d0000ba0d0000be0d000023
:1001c800c20d0000c60d0000ca0d0000ce0d0000d3
:1001d800d20d0000d60d0000da0d0000de0d000083
:1001e800e20d0000e60d0000ea0d0000ee0d000033
:0801f800f20d0000f60d0000fd
:020000040000fa
:10020800020c0000060c00000a0c00000e0c000096
:10021800120c0000160c00001a0c00001e0c000046
:10022800220c0000260c00002a0c00002e0c0000f6
:10023800320c0000360c00003a0c00003e0c0000a6
:10024800420c0000460c00004a0c00004e0c000056
:10025800520c0000560c00005a0c00005e0c000006
:10026800620c0000660c00006a0c00006e0c0000b6
:10027800720c0000760c00007a0c00007e0c000066
:10028800820c0000860c00008a0c00008e0c000016
:10029800920c0000960c00009a0c00009e0c0000c6
:1002a800a20c0000a60c0000aa0c0000ae0c000076
:1002b800b20c0000b60c0000ba0c0000be0c000026
:1002c800c20c0000c60c0000ca0c0000ce0c0000d6
:1002d800d20c0000d60c0000da0c0000de0c000086
:1002e800e20c0000e60c0000ea0c0000ee0c000036
:1002f800f20c0000f60c0000fa0c0000fe0c0000e6
:10030800020d0000060d00000a0d00000e0d000091
:10031800120d0000160d00001a0d00001e0d000041
:10032800220d0000260d00002a0d00002e0d0000f1
:10033800320d0000360d00003a0d00003e0d0000a1
:10034800420d0000460d00004a0d00004e0d000051
:10035800520d0000560d00005a0d00005e0d000001
:10036800620d0000660d00006a0d00006e0d0000b1
:10037800720d0000760d00007a0d00007e0d000061
:10038800820d0000860d00008a0d00008e0d000011
:10039800920d0000960d00009a0d00009e0d0000c1
:1003a800a20d0000a60d0000aa0d0000ae0d000071
:1003b800b20d0000b60d0000ba0d0000be0d000021
:1003c800c20d0000c60d0000ca0d0000ce0d0000d1
:1003d800d20d0000d60d0000da0d0000de0d000081
:1003e800e20d0000e60d0000ea0d0000ee0d000031
:0803f800f20d0000f60d0000fb
:020000040000fa
:100400008fe620000e7f22000e0188000000000011
:1004100000012000200288000c000700607020000e
:100420000100200011000700000020000000e00093
:10043000020032000000020000000000c4030200bd
:10044000000000000040da000000fe004440a90067
:10045000000020000000e000030032000000200047
:10046000a00188004440a800000006009101880017
:10047000800078000000eb0015003700e2804000ab
:1004800032a0b4009101ba00e280400032a0b40072
:100490009102ba00e280400032a0b4000002eb00fa
:1004a000472bde00f507b200602ce10004003a00a3
:1004b0000059eb008301e900fdff3e000400370016
:1004c0006128e100010032000082eb000400070017
:1004d0001101ba000200e000e8ff3a000000060047
:1004e0003159ba008301e9000c0032002159ba00e9
:1004f0008301e900080032000400e00003003a0034
:10050000e280400032a0b400f5ff370011d9ba00f4
:100510008301e900faff3a008100e800e180400031
:1005200032a0b400000006000040da000000fe0027
:100530006022b800060220000000d0008180d200b6
:100540000482d2008582d2000000a0000202520084
:1005500083825a00030031000202420083824a0073
:100560000000a1000603e900f3ff3a0000000600c6
:020000040000fa
:100570007801070000000600051020002404800018
:1005800005026200020032000048eb000d00370057
:100590002242ab0002003200341180000000fe0055
:1005a0002222ab00020032002222a9000000fe003d
:1005b0002202ab00f1ff320011e1a90034118000ea
:1005c0000448780000000600889fbe008a9fbe0095
:1005d000000578000204be000b6020008b0545007a
:1005e00088007800090078008e010700014d78002e
:1005f0004882de00144598002045980063054500b8
:1006000062044400e0844c008b0f5500f4ff3a0074
:100610004f05be004f04be0000000600052020006c
:100620001411800005026200fdff3a000000fb008b
:100630002011880000000600889fbe008a1f7800f5
:1006400001057800e00f55000700340080047800b1
:100650000004eb0039407800f0ff07000804e800d0
:10066000880f5500fbff3c004f0578004f04be008b
:1006700000000600ec874700889fbe008a9fbe00ee
:100680008c9fbe008e1f78000204be00000578001b
:100690001b0020000ef02f0002003700630545000c
:1006a0008b05e8009a4278000582fb008c02670007
:1006b000848272001a4390004833dd00f40f20005a
:1006c00084826200068672002a4190000281fb004b
:1006d0008d026700028172000401610082067800c9
:1006e0008c01780088007800090078004901070033
:1006f0007f026400f80f520006003a000802be00b4
:10070000e4b79f00f5b79f000c02be00c4b79f007e
:10071000d5b79f00e18f5500120032008bbf9f00bc
:100720000b027800f403b20007003a00cfb1970043
:100730005fb19700efb097007fb0970035010700d9
:10074000100024002501070062044400e0844c00ee
:10075000f41f20008fba9700848f5200cfff34001f
:100760000300370062044400e0844c00cbff3700f4
:100770004f0778004f06be004f05be004f04be0075
:10078000cf00b100000006000e00fa00889fbe00f6
:100790008a9fbe008c1f78000002eb00840888004e
:1007a000940888000411880071ff070040a7a90081
:1007b00004c02000050020008400780005007800b7
:1007c000180107000004be0040c7ab000100320062
:1007d00018010700e04f5400040032004007ab004e
:1007e00003003a0040e7ab0001003a0011010700a6
:1007f0001061a8008500a9009500a900f40f200051
:10080000050020000803620007002000840f530049
:10081000858f5b000d0032000804fb00cfc4de00b2
:100820000440220004cab900460f200006c3b900e4
:1008300004024300054022000544b8008904420038
:10084000790888006808880011e1a80000102e00cf
:10085000010020003301070074865700788057009c
:1008600045ff07000fea97000402fb00cfa2de005d
:10087000f30f5200e08f5a0082003e000460010036
:100880007e0037007f00370011003700200037005e
:100890007c0037007b0037007a00370063003700a8
:1008a00074003700430037007600370075003700ca
:1008b0007400370073003700720037007100370092
:1008c00070003700500037006e00370055003700c9
:1008d0007680570028ff07007580570026ff070025
:1008e0000c00780024ff07000042eb00d4ef9f00cb
:1008f0005fb19700efb197000080200032ff070042
:1009000001602000008020004bff0700d3ff37006c
:100910007280570018ff07007180570016ff07000c
:100920007080570014ff07000042eb0094f79f000f
:100930000004eb00098020000a6020000900440048
:100940000dff07000804e8008a0f5400fbff3a007f
:100950007fb297008fba970004037800f63fb20089
:1009600008003a00f6bf2000860f5200e08f5a00c0
:100970000d00360022042400ffb097000fb8970046
:10098000b30007007fb297008fba9700f6bf200030
:10099000860f5200e08f5a00030036000401be00ab
:1009a0000080200033ff070010c0b3001bff0700ca
:1009b000aaff370004002000f50f20008400780013
:1009c000050078009700070090bf9f00a1bf9f001f
:1009d000410020006e80570017ff07002400200010
:1009e000f50f200084007800050078008d000700d6
:1009f00090bf9f00a1bf9f00410020006e80570064
:100a00000dff070095ff370030c0b30003ff07005c
:100a10000040eb0001ff070010c0b300fffe07001d
:100a20008eff3700860007008cff37000004eb00c4
:100a3000098020004b0220000805780009004400ce
:100a4000cdfe07000800e80009004000cafe0700cc
:100a5000630444000a85e80009004500c6fe07005b
:100a600010c0b300edfe07008b0f5400f2ff3a00f8
:100a70007aff37007200070078ff37006d0007002b
:100a800076ff37000040eb00e4fe070073ff3700fd
:100a9000000006000200fa00ff3ffc00143a80004c
:100aa000f4bf9f00e7026000c82add00f48f2f002a
:100ab0007fbb970004026300050272000400a000df
:100ac000f4bf9f007ffb97000683fb00a509200071
:100ad0008407200037742000844b7800854b780011
:100ae000864b78006ffa97000483fb0075052000a1
:100af0006404200027742000844b7800854b780024
:100b0000864b78000000fc004207ab00feff3a0075
:100b1000e14f500002003200e34f500004003a0061
:100b200005022000143a800005026200fdff320039
:100b30008082fb00143a80004c22de0067026200d3
:100b4000850f5200fbff3a000080fa00000006000b
:100b5000000006000040eb00ceff0700243a8000b2
:100b60000480a1000490a10004a0a100243a880000
:100b700010c0b300c7ff070000000600243a800041
:100b80000480a1000490a10004a0a100243a8800e0
:100b90000040eb00bfff07000000060020c0b300cc
:100ba000bcff0700000006000040eb00b9ff070093
:100bb000243a80000480a1000490a10004a0a100b8
:100bc000243a880030c0b300b2ff070000000600de
:100bd00020c0b300afff070000000600003b880004
:100be00054052000343b8800a40a2000343b8800d0
:100bf00061e7a800000000000000000061e7af000e
:100c0000feff370000000600900188008100780098
:100c100000000600900188008308bb008288bb00aa
:100c200000000600900188001100ba009180ba000f
:100c300000000600000e0400000000000000060096
:100c40004007a800000e040000000000000006009d
:100c50003200f800023b8800900188008108bb0048
:100c600054052000343b8800a40a2000343b88004f
:100c700061e7a800000000000000000061e7af008d
:100c8000feff37003200f9000000060000000600f9
:100c9000881f7800020478000401be0024fe0700cb
:100ca000e00f54000f003a006f026000e70f52009f
:100cb000050036004c0add004400de000000720032
:100cc000c408de00150037004c0add004400de00d9
:100cd00000007200c408de0061005000e08058008f
:100ce0000e00370063026000e10f5200050036007d
:100cf0004e0add004200de0000007200c208de0085
:100d0000060037004e0add004200de0000007200df
:100d1000c208de0061005000e08058004f047800f7
:100d20000000060014002000147088000300070073
:100d3000000006002700070000000600c942a800c6
:100d4000cf42a9006a00a9002535800004fe2f00cb
:100d500004826200a400b30024358800c962a9009f
:100d6000cf62a90069e0a90055368000f40f2e007b
:100d7000048262000430b300543688000001eb00a6
:100d8000021188000002be0000402200410f200036
:100d9000bfff0700401188000400280004118800ec
:100da000044020001411880000e823000100200006
:100db000e0ff07002222a900010037003411800063
:100dc0002262ab00fdff3a002242ab00fbff3a007b
:040dd0000000060019
:020000040000fa
:100dd400f03fb1000180b10006003500ee030900c8
:100de40000000000403fb1000180b100fbff3d0066
:100df4001000b000203fb000020035000080090060
:080e04000000000000000600e0
:020000040000fa
:100e0c00020e0000020000000200000001000000c1
:040e1c0000000000d2
:020000040000fa
:04aff8006d78000070
:020000040000fa
:04affc00793f000099
:00000001FF
