:020000040000fa
:080000000002040000000000f2
:020000040000fa
:10000800020c0000060c00000a0c00000e0c000098
:10001800120c0000160c00001a0c00001e0c000048
:10002800220c0000260c00002a0c00002e0c0000f8
:10003800320c0000360c00003a0c00003e0c0000a8
:10004800420c0000460c00004a0c00004e0c000058
:10005800520c0000560c00005a0c00005e0c000008
:10006800620c0000660c00006a0c00006e0c0000b8
:10007800720c0000760c00007a0c00007e0c000068
:10008800820c0000860c00008a0c00008e0c000018
:10009800920c0000960c00009a0c00009e0c0000c8
:1000a800a20c0000a60c0000aa0c0000ae0c000078
:1000b800b20c0000b60c0000ba0c0000be0c000028
:1000c800c20c0000c60c0000ca0c0000ce0c0000d8
:1000d800d20c0000d60c0000da0c0000de0c000088
:1000e800e20c0000e60c0000ea0c0000ee0c000038
:1000f800f20c0000f60c0000fa0c0000fe0c0000e8
:10010800020d0000060d00000a0d00000e0d000093
:10011800120d0000160d00001a0d00001e0d000043
:10012800220d0000260d00002a0d00002e0d0000f3
:10013800320d0000360d00003a0d00003e0d0000a3
:10014800420d0000460d00004a0d00004e0d000053
:10015800520d0000560d00005a0d00005e0d000003
:10016800620d0000660d00006a0d00006e0d0000b3
:10017800720d0000760d00007a0d00007e0d000063
:10018800820d0000860d00008a0d00008e0d000013
:10019800920d0000960d00009a0d00009e0d0000c3
:1001a800a20d0000a60d0000aa0d0000ae0d000073
:1001b800b20d0000b60d0000ba0d0000be0d000023
:1001c800c20d0000c60d0000ca0d0000ce0d0000d3
:1001d800d20d0000d60d0000da0d0000de0d000083
:1001e800e20d0000e60d0000ea0d0000ee0d000033
:0801f800f20d0000f60d0000fd
:020000040000fa
:10020800020c0000060c00000a0c00000e0c000096
:10021800120c0000160c00001a0c00001e0c000046
:10022800220c0000260c00002a0c00002e0c0000f6
:10023800320c0000360c00003a0c00003e0c0000a6
:10024800420c0000460c00004a0c00004e0c000056
:10025800520c0000560c00005a0c00005e0c000006
:10026800620c0000660c00006a0c00006e0c0000b6
:10027800720c0000760c00007a0c00007e0c000066
:10028800820c0000860c00008a0c00008e0c000016
:10029800920c0000960c00009a0c00009e0c0000c6
:1002a800a20c0000a60c0000aa0c0000ae0c000076
:1002b800b20c0000b60c0000ba0c0000be0c000026
:1002c800c20c0000c60c0000ca0c0000ce0c0000d6
:1002d800d20c0000d60c0000da0c0000de0c000086
:1002e800e20c0000e60c0000ea0c0000ee0c000036
:1002f800f20c0000f60c0000fa0c0000fe0c0000e6
:10030800020d0000060d00000a0d00000e0d000091
:10031800120d0000160d00001a0d00001e0d000041
:10032800220d0000260d00002a0d00002e0d0000f1
:10033800320d0000360d00003a0d00003e0d0000a1
:10034800420d0000460d00004a0d00004e0d000051
:10035800520d0000560d00005a0d00005e0d000001
:10036800620d0000660d00006a0d00006e0d0000b1
:10037800720d0000760d00007a0d00007e0d000061
:10038800820d0000860d00008a0d00008e0d000011
:10039800920d0000960d00009a0d00009e0d0000c1
:1003a800a20d0000a60d0000aa0d0000ae0d000071
:1003b800b20d0000b60d0000ba0d0000be0d000021
:1003c800c20d0000c60d0000ca0d0000ce0d0000d1
:1003d800d20d0000d60d0000da0d0000de0d000081
:1003e800e20d0000e60d0000ea0d0000ee0d000031
:0803f800f20d0000f60d0000fb
:020000040000fa
:100400008fb620000ebf20000e0188000000000003
:1004100000012000200288000c00070080782000e6
:100420000100200011000700000020000000e00093
:10043000020032000000020000000000c4030200bd
:10044000000000000040da000000fe004440a90067
:10045000000020000000e000030032000000200047
:10046000a00188004440a800000006009101880017
:10047000800078000000eb0015003700e2804000ab
:1004800032a0b4009101ba00e280400032a0b40072
:100490009102ba00e280400032a0b4000002eb00fa
:1004a000472bde00f507b200602ce10004003a00a3
:1004b0000059eb008301e900fdff3e000400370016
:1004c0006128e100010032000082eb000400070017
:1004d0001101ba000200e000e8ff3a000000060047
:1004e0003159ba008301e9000c0032002159ba00e9
:1004f0008301e900080032000400e00003003a0034
:10050000e280400032a0b400f5ff370011d9ba00f4
:100510008301e900faff3a008100e800e180400031
:1005200032a0b400000006000040da000000fe0027
:100530006022b800060220000000d0008180d200b6
:100540000482d2008582d2000000a0000202520084
:1005500083825a00030031000202420083824a0073
:100560000000a1000603e900f3ff3a0000000600c6
:020000040000fa
:10057000a0010700000006000510200024048000f0
:1005800005026200020032000048eb000d00370057
:100590002242ab0002003200341180000000fe0055
:1005a0002222ab00020032002222a9000000fe003d
:1005b0002202ab00f1ff320011e1a90034118000ea
:1005c0000448780000000600889fbe008a9fbe0095
:1005d000000578000204be000b3020008a8545002b
:1005e0008800780009007800cf010700014d7800ed
:1005f0004882de00144598002045980063054500b8
:1006000062044400e0844c008b0f5500f4ff3a0074
:100610004f05be004f04be0000000600052020006c
:100620001411800005026200fdff3a000000fb008b
:100630002011880000000600889fbe008a1f7800f5
:1006400001057800e00f55000700340080047800b1
:100650000004eb0039407800f0ff07000804e800d0
:10066000880f5500fbff3c004f0578004f04be008b
:1006700000000600ec874700889fbe008a9fbe00ee
:100680008c9fbe008e1f78000204be00000578001b
:100690001b0020000ef02f0002003700630545000c
:1006a0008b05e8009a4278000582fb008c02670007
:1006b000848272001a4390004833dd00f40f20005a
:1006c00084826200068672002a4190000281fb004b
:1006d0008d026700028172000401610082067800c9
:1006e0008c01780088007800090078008a010700f2
:1006f0007f026400f80f520006003a000802be00b4
:10070000e4b79f00f5b79f000c02be00c4b79f007e
:10071000d5b79f00e18f5500120032008bbf9f00bc
:100720000b027800f403b20007003a00cfb1970043
:100730005fb19700efb097007fb097007601070098
:10074000100024006601070062044400e0844c00ad
:10075000f40f20008fba9700848f5200cfff34002f
:100760000300370062044400e0844c00cbff3700f4
:100770004f0778004f06be004f05be004f04be0075
:10078000cf00b10000000600f2874700889fbe003e
:100790008a9fbe008c9fbe008e1f78000002eb0077
:1007a00084088800940888000411880070ff0700fe
:1007b00040a7a90004c020000500200084007800a4
:1007c00005007800580107000004be0040c7ab00d8
:1007d0000100320058010700e04f540004003200cd
:1007e0004007ab0003003a0040e7ab0001003a00cd
:1007f000510107001061a8008500a9009500a9001b
:10080000f40f20000500200008036200070020000c
:10081000840f5300858f5b000d0032000804fb003d
:10082000cfc4de0004a0250004cab900262620009b
:1008300006c3b9000402430006a025000643b80021
:1008400007024200740888006608880011e1a800c9
:100850000040280031002000730107007a82570011
:1008600084bf9f007e80570043ff07002fe2970060
:100870000402fb00cfa2de00f30f5200e08f5a000b
:10088000a0003e00046001009c0037009d0037007e
:1008900011003700200037009a0037009900370018
:1008a00098003700630037007400370043003700ba
:1008b0009400370093003700920037009100370012
:1008c000900037008f0037008e003700500037004f
:1008d0008c003700550037007c80570026ff07004a
:1008e0007b80570024ff07000fb8970022ff070006
:1008f0000042eb00f4e79f002fb19700bfb19700d3
:100900000080200030ff0700013020000080200020
:1009100049ff0700d3ff37007880570016ff070014
:100920007780570014ff07007680570012ff0700fa
:100930000042eb00b4ef9f000004eb0009802000b0
:100940000a302000090044000bff07000804e800fb
:100950008a0f5400fbff3a004fb29700dfb29700b6
:1009600004037800f63fb20008003a00f6bf20000a
:10097000860f5200e08f5a000d003600220424003a
:10098000cfb097005fb09700f20007004fb297001a
:10099000dfb29700f6bf2000860f5200e08f5a00aa
:1009a000030036000401be000080200031ff070074
:1009b00010c0b30019ff0700aaff37000400200091
:1009c000f50f20008400780005007800d6000700ad
:1009d000e0b79f00f1b79f004100200074805700ee
:1009e00015ff070024002000f50f20008400780088
:1009f00005007800cc000700e0b79f00f1b79f002a
:100a000041002000748057000bff070095ff37005e
:100a100030c0b30001ff07000040eb00fffe0700fd
:100a200010c0b300fdfe07008eff3700c5000700b1
:100a30008cff37000004eb00098020004b022000ef
:100a40000805780009004400cbfe07000800e80014
:100a500009004000c8fe0700630444000a85e8005e
:100a600009004500c4fe070010c0b300ebfe0700fc
:100a70008b0f5400f2ff3a007aff37000a00200083
:100a80008b0f200008802000490220008884440049
:100a90000ef02f008042eb0098cf120010003a00b9
:100aa000984290008582fb000c036700850273006a
:100ab000284290004822dd00f60f20008682620066
:100ac00084817200030678000d0178008a007800a6
:100ad0000b00780090000700000024008000070051
:100ae00062054500e0854d0063044400890f540011
:100af000e8ff3a00930007005aff37008e00070016
:100b000058ff37000040eb00c4fe070055ff3700d8
:100b1000000006000200fa00ff3ffc00143a8000cb
:100b2000f4bf9f00e7026000c82add00f48f2f00a9
:100b30007fbb970004026300050272000400a0005e
:100b4000f4bf9f007ffb97000683fb00a5092000f0
:100b50008407200037742000844b7800854b780090
:100b6000864b78006ffa97000483fb007505200020
:100b70006404200027742000844b7800854b7800a3
:100b8000864b78000000fc004207ab00feff3a00f5
:100b9000e14f500002003200e34f500004003a00e1
:100ba00005022000143a800005026200fdff3200b9
:100bb0008082fb00143a80004c22de006702620053
:100bc000850f5200fbff3a000080fa00000006008b
:100bd0000000060020c0b300ceff070000000600a2
:100be0000040eb00cbff070000fc2f004827b600b9
:100bf000000006000040eb00c6ff070000fc2f00cd
:100c00004827b600253a800004fe2f0004826200c7
:100c10007400b300243a8800353a800004e02f00c5
:100c200004826200140cb300343a8800243a800035
:100c30000460a1000470a100243a880010c0b30031
:100c4000b4ff0700000006000040eb00b1ff070002
:100c5000253a800004fe2f00048262000420a000d8
:100c6000243a8800353a800004e02f0004826200b4
:100c70000470a000343a8800243a80000460a10087
:100c80000470a100243a880030c0b300a1ff07001f
:100c9000000006000040eb009eff070000fe2f0052
:100ca0004427b600353a800004e02f000482620039
:100cb0006402b300343a8800243a80000460a10042
:100cc0000470a100243a880030c0b30091ff0700ef
:100cd0000000060020c0b3008eff070000000600e1
:100ce000003b880054052000343b8800a40a200003
:100cf000343b880061e7a80000000000000000000d
:100d000061e7af00feff3700000006009001880099
:100d10008100780000000600900188008308bb0075
:100d20008288bb0000000600900188001100ba0014
:100d30009180ba0000000600000e040000000000d0
:100d4000000006004007a800000e0400000000009c
:100d5000000006003200f800023b88009001880085
:100d60008108bb0054052000343b8800a40a200001
:100d7000343b880061e7a80000000000000000008c
:100d800061e7af00feff37003200f9000000060007
:100d900000000600881f7800020478000401be00ed
:100da000e3fd0700e00f54000f003a006f026000ff
:100db000e70f5200050036004c0add004400de005b
:100dc00000007200c408de00150037004c0add0088
:100dd0004400de0000007200c408de006100500024
:100de000e08058000e00370063026000e10f5200ff
:100df000050036004e0add004200de0000007200f1
:100e0000c208de00060037004e0add004200de00a8
:100e100000007200c208de0061005000e08058004f
:100e20004f047800000006001400200014588800c9
:100e3000030007000000060027000700000006006e
:100e4000c942a800cf42a9006a00a9002535800048
:100e500004fe2f0004826200a400b3002435880041
:100e6000c962a900cf62a90069e0a90055368000d7
:100e7000f40f2e00048262000430b3005436880060
:100e80000001eb00021188000002be0000a0250056
:100e900021262000bfff0700401188000400280021
:100ea00004118800044020001411880000c42900a7
:100eb00001002000e0ff07002222a9000100370006
:100ec000341180002262ab00fdff3a002242ab00e9
:080ed000fbff3a0000000600e0
:020000040000fa
:100ed800f03fb1000180b10006003500ee030900c3
:100ee80000000000403fb1000180b100fbff3d0061
:100ef8001000b000203fb00002003500008009005b
:080f08000000000000000600db
:020000040000fa
:100f1000020b0000020000000200000001000000bf
:040f200000000000cd
:020000040000fa
:0200000401f009
:04000000ffff0000fe
:020000040000fa
:0200000401f009
:04000800ffff0000f6
:020000040000fa
:0200000401f009
:04000c0078ff000079
:020000040000fa
:0200000401f009
:040010005dff000090
:020000040000fa
:0200000401f009
:0400140079ff000070
:020000040000fa
:0200000401f009
:04001800fcff0000e9
:020000040000fa
:0200000401f009
:04001c00dfff000002
:00000001FF
